{
  "_format": "hh-sol-artifact-1",
  "contractName": "ERC2099starz",
  "sourceName": "contracts/ERC2099starz.sol",
  "abi": [
    {
      "inputs": [
        {
          "internalType": "string",
          "name": "name",
          "type": "string"
        },
        {
          "internalType": "string",
          "name": "symbol",
          "type": "string"
        },
        {
          "internalType": "uint256",
          "name": "initialSupply",
          "type": "uint256"
        },
        {
          "internalType": "address",
          "name": "owner",
          "type": "address"
        }
      ],
      "stateMutability": "nonpayable",
      "type": "constructor"
    },
    {
      "anonymous": false,
      "inputs": [
        {
          "indexed": true,
          "internalType": "address",
          "name": "owner",
          "type": "address"
        },
        {
          "indexed": true,
          "internalType": "address",
          "name": "spender",
          "type": "address"
        },
        {
          "indexed": false,
          "internalType": "uint256",
          "name": "value",
          "type": "uint256"
        }
      ],
      "name": "Approval",
      "type": "event"
    },
    {
      "anonymous": false,
      "inputs": [
        {
          "indexed": true,
          "internalType": "address",
          "name": "previousOwner",
          "type": "address"
        },
        {
          "indexed": true,
          "internalType": "address",
          "name": "newOwner",
          "type": "address"
        }
      ],
      "name": "OwnershipTransferred",
      "type": "event"
    },
    {
      "anonymous": false,
      "inputs": [
        {
          "indexed": true,
          "internalType": "address",
          "name": "from",
          "type": "address"
        },
        {
          "indexed": true,
          "internalType": "address",
          "name": "to",
          "type": "address"
        },
        {
          "indexed": false,
          "internalType": "uint256",
          "name": "value",
          "type": "uint256"
        }
      ],
      "name": "Transfer",
      "type": "event"
    },
    {
      "inputs": [
        {
          "internalType": "address",
          "name": "owner",
          "type": "address"
        },
        {
          "internalType": "address",
          "name": "spender",
          "type": "address"
        }
      ],
      "name": "allowance",
      "outputs": [
        {
          "internalType": "uint256",
          "name": "",
          "type": "uint256"
        }
      ],
      "stateMutability": "view",
      "type": "function"
    },
    {
      "inputs": [
        {
          "internalType": "address",
          "name": "spender",
          "type": "address"
        },
        {
          "internalType": "uint256",
          "name": "amount",
          "type": "uint256"
        }
      ],
      "name": "approve",
      "outputs": [
        {
          "internalType": "bool",
          "name": "",
          "type": "bool"
        }
      ],
      "stateMutability": "nonpayable",
      "type": "function"
    },
    {
      "inputs": [
        {
          "internalType": "address",
          "name": "account",
          "type": "address"
        }
      ],
      "name": "balanceOf",
      "outputs": [
        {
          "internalType": "uint256",
          "name": "",
          "type": "uint256"
        }
      ],
      "stateMutability": "view",
      "type": "function"
    },
    {
      "inputs": [
        {
          "internalType": "uint256",
          "name": "amount",
          "type": "uint256"
        }
      ],
      "name": "burn",
      "outputs": [],
      "stateMutability": "nonpayable",
      "type": "function"
    },
    {
      "inputs": [
        {
          "internalType": "address",
          "name": "account",
          "type": "address"
        },
        {
          "internalType": "uint256",
          "name": "amount",
          "type": "uint256"
        }
      ],
      "name": "burnFrom",
      "outputs": [],
      "stateMutability": "nonpayable",
      "type": "function"
    },
    {
      "inputs": [],
      "name": "decimals",
      "outputs": [
        {
          "internalType": "uint8",
          "name": "",
          "type": "uint8"
        }
      ],
      "stateMutability": "view",
      "type": "function"
    },
    {
      "inputs": [
        {
          "internalType": "address",
          "name": "spender",
          "type": "address"
        },
        {
          "internalType": "uint256",
          "name": "subtractedValue",
          "type": "uint256"
        }
      ],
      "name": "decreaseAllowance",
      "outputs": [
        {
          "internalType": "bool",
          "name": "",
          "type": "bool"
        }
      ],
      "stateMutability": "nonpayable",
      "type": "function"
    },
    {
      "inputs": [
        {
          "internalType": "address",
          "name": "spender",
          "type": "address"
        },
        {
          "internalType": "uint256",
          "name": "addedValue",
          "type": "uint256"
        }
      ],
      "name": "increaseAllowance",
      "outputs": [
        {
          "internalType": "bool",
          "name": "",
          "type": "bool"
        }
      ],
      "stateMutability": "nonpayable",
      "type": "function"
    },
    {
      "inputs": [],
      "name": "name",
      "outputs": [
        {
          "internalType": "string",
          "name": "",
          "type": "string"
        }
      ],
      "stateMutability": "view",
      "type": "function"
    },
    {
      "inputs": [],
      "name": "owner",
      "outputs": [
        {
          "internalType": "address",
          "name": "",
          "type": "address"
        }
      ],
      "stateMutability": "view",
      "type": "function"
    },
    {
      "inputs": [],
      "name": "symbol",
      "outputs": [
        {
          "internalType": "string",
          "name": "",
          "type": "string"
        }
      ],
      "stateMutability": "view",
      "type": "function"
    },
    {
      "inputs": [],
      "name": "totalSupply",
      "outputs": [
        {
          "internalType": "uint256",
          "name": "",
          "type": "uint256"
        }
      ],
      "stateMutability": "view",
      "type": "function"
    },
    {
      "inputs": [
        {
          "internalType": "address",
          "name": "recipient",
          "type": "address"
        },
        {
          "internalType": "uint256",
          "name": "amount",
          "type": "uint256"
        }
      ],
      "name": "transfer",
      "outputs": [
        {
          "internalType": "bool",
          "name": "",
          "type": "bool"
        }
      ],
      "stateMutability": "nonpayable",
      "type": "function"
    },
    {
      "inputs": [
        {
          "internalType": "address",
          "name": "sender",
          "type": "address"
        },
        {
          "internalType": "address",
          "name": "recipient",
          "type": "address"
        },
        {
          "internalType": "uint256",
          "name": "amount",
          "type": "uint256"
        }
      ],
      "name": "transferFrom",
      "outputs": [
        {
          "internalType": "bool",
          "name": "",
          "type": "bool"
        }
      ],
      "stateMutability": "nonpayable",
      "type": "function"
    },
    {
      "inputs": [
        {
          "internalType": "address",
          "name": "newOwner",
          "type": "address"
        }
      ],
      "name": "transferOwnership",
      "outputs": [],
      "stateMutability": "nonpayable",
      "type": "function"
    }
  ],
  "bytecode": "0x60806040523480156200001157600080fd5b50604051620024083803806200240883398181016040528101906200003791906200044a565b8383816003908051906020019062000051929190620002fa565b5080600490805190602001906200006a929190620002fa565b5050506200008d62000081620000a960201b60201c565b620000b160201b60201c565b6200009f81836200017760201b60201c565b50505050620007ba565b600033905090565b6000600560009054906101000a900473ffffffffffffffffffffffffffffffffffffffff16905081600560006101000a81548173ffffffffffffffffffffffffffffffffffffffff021916908373ffffffffffffffffffffffffffffffffffffffff1602179055508173ffffffffffffffffffffffffffffffffffffffff168173ffffffffffffffffffffffffffffffffffffffff167f8be0079c531659141344cd1fd0a4f28419497f9722a3daafe3b4186f6b6457e060405160405180910390a35050565b600073ffffffffffffffffffffffffffffffffffffffff168273ffffffffffffffffffffffffffffffffffffffff161415620001ea576040517f08c379a0000000000000000000000000000000000000000000000000000000008152600401620001e1906200053b565b60405180910390fd5b620001fe60008383620002f060201b60201c565b8060026000828254620002129190620005f2565b92505081905550806000808473ffffffffffffffffffffffffffffffffffffffff1673ffffffffffffffffffffffffffffffffffffffff1681526020019081526020016000206000828254620002699190620005f2565b925050819055508173ffffffffffffffffffffffffffffffffffffffff16600073ffffffffffffffffffffffffffffffffffffffff167fddf252ad1be2c89b69c2b068fc378daa952ba7f163c4a11628f55a4df523b3ef83604051620002d091906200055d565b60405180910390a3620002ec60008383620002f560201b60201c565b5050565b505050565b505050565b8280546200030890620006c3565b90600052602060002090601f0160209004810192826200032c576000855562000378565b82601f106200034757805160ff191683800117855562000378565b8280016001018555821562000378579182015b82811115620003775782518255916020019190600101906200035a565b5b5090506200038791906200038b565b5090565b5b80821115620003a65760008160009055506001016200038c565b5090565b6000620003c1620003bb84620005ae565b6200057a565b905082815260208101848484011115620003da57600080fd5b620003e78482856200068d565b509392505050565b600081519050620004008162000786565b92915050565b600082601f8301126200041857600080fd5b81516200042a848260208601620003aa565b91505092915050565b6000815190506200044481620007a0565b92915050565b600080600080608085870312156200046157600080fd5b600085015167ffffffffffffffff8111156200047c57600080fd5b6200048a8782880162000406565b945050602085015167ffffffffffffffff811115620004a857600080fd5b620004b68782880162000406565b9350506040620004c98782880162000433565b9250506060620004dc87828801620003ef565b91505092959194509250565b6000620004f7601f83620005e1565b91507f45524332303a206d696e7420746f20746865207a65726f2061646472657373006000830152602082019050919050565b620005358162000683565b82525050565b600060208201905081810360008301526200055681620004e8565b9050919050565b60006020820190506200057460008301846200052a565b92915050565b6000604051905081810181811067ffffffffffffffff82111715620005a457620005a362000757565b5b8060405250919050565b600067ffffffffffffffff821115620005cc57620005cb62000757565b5b601f19601f8301169050602081019050919050565b600082825260208201905092915050565b6000620005ff8262000683565b91506200060c8362000683565b9250827fffffffffffffffffffffffffffffffffffffffffffffffffffffffffffffffff03821115620006445762000643620006f9565b5b828201905092915050565b60006200065c8262000663565b9050919050565b600073ffffffffffffffffffffffffffffffffffffffff82169050919050565b6000819050919050565b60005b83811015620006ad57808201518184015260208101905062000690565b83811115620006bd576000848401525b50505050565b60006002820490506001821680620006dc57607f821691505b60208210811415620006f357620006f262000728565b5b50919050565b7f4e487b7100000000000000000000000000000000000000000000000000000000600052601160045260246000fd5b7f4e487b7100000000000000000000000000000000000000000000000000000000600052602260045260246000fd5b7f4e487b7100000000000000000000000000000000000000000000000000000000600052604160045260246000fd5b62000791816200064f565b81146200079d57600080fd5b50565b620007ab8162000683565b8114620007b757600080fd5b50565b611c3e80620007ca6000396000f3fe608060405234801561001057600080fd5b50600436106100f55760003560e01c806370a0823111610097578063a457c2d711610066578063a457c2d714610288578063a9059cbb146102b8578063dd62ed3e146102e8578063f2fde38b14610318576100f5565b806370a082311461020057806379cc6790146102305780638da5cb5b1461024c57806395d89b411461026a576100f5565b806323b872dd116100d357806323b872dd14610166578063313ce5671461019657806339509351146101b457806342966c68146101e4576100f5565b806306fdde03146100fa578063095ea7b31461011857806318160ddd14610148575b600080fd5b610102610334565b60405161010f9190611833565b60405180910390f35b610132600480360381019061012d9190611281565b6103c6565b60405161013f9190611818565b60405180910390f35b6101506104d6565b60405161015d91906119d5565b60405180910390f35b610180600480360381019061017b9190611232565b6104e0565b60405161018d9190611818565b60405180910390f35b61019e6105d8565b6040516101ab91906119f0565b60405180910390f35b6101ce60048036038101906101c99190611281565b6105e1565b6040516101db9190611818565b60405180910390f35b6101fe60048036038101906101f991906112bd565b61068d565b005b61021a600480360381019061021591906111cd565b6106a1565b60405161022791906119d5565b60405180910390f35b61024a60048036038101906102459190611281565b6106e9565b005b610254610764565b60405161026191906117fd565b60405180910390f35b61027261078e565b60405161027f9190611833565b60405180910390f35b6102a2600480360381019061029d9190611281565b610820565b6040516102af9190611818565b60405180910390f35b6102d260048036038101906102cd9190611281565b61090b565b6040516102df9190611818565b60405180910390f35b61030260048036038101906102fd91906111f6565b610929565b60405161030f91906119d5565b60405180910390f35b610332600480360381019061032d91906111cd565b6109b0565b005b60606003805461034390611b39565b80601f016020809104026020016040519081016040528092919081815260200182805461036f90611b39565b80156103bc5780601f10610391576101008083540402835291602001916103bc565b820191906000526020600020905b81548152906001019060200180831161039f57829003601f168201915b5050505050905090565b600080600160006103d5610aa8565b73ffffffffffffffffffffffffffffffffffffffff1673ffffffffffffffffffffffffffffffffffffffff16815260200190815260200160002060008573ffffffffffffffffffffffffffffffffffffffff1673ffffffffffffffffffffffffffffffffffffffff168152602001908152602001600020549050828114156104615760019150506104d0565b8083111561048c5780836104759190611a7d565b925061048184846105e1565b5060019150506104d0565b60008314156104b1576104a76104a0610aa8565b8585610ab0565b60019150506104d0565b82816104bd9190611a7d565b92506104c98484610820565b5060019150505b92915050565b6000600254905090565b60006104ed848484610c7b565b6000600160008673ffffffffffffffffffffffffffffffffffffffff1673ffffffffffffffffffffffffffffffffffffffff1681526020019081526020016000206000610538610aa8565b73ffffffffffffffffffffffffffffffffffffffff1673ffffffffffffffffffffffffffffffffffffffff168152602001908152602001600020549050828110156105b8576040517f08c379a00000000000000000000000000000000000000000000000000000000081526004016105af906118f5565b60405180910390fd5b6105cc856105c4610aa8565b858403610ab0565b60019150509392505050565b60006012905090565b60006106836105ee610aa8565b8484600160006105fc610aa8565b73ffffffffffffffffffffffffffffffffffffffff1673ffffffffffffffffffffffffffffffffffffffff16815260200190815260200160002060008873ffffffffffffffffffffffffffffffffffffffff1673ffffffffffffffffffffffffffffffffffffffff1681526020019081526020016000205461067e9190611a27565b610ab0565b6001905092915050565b61069e610698610aa8565b82610efc565b50565b60008060008373ffffffffffffffffffffffffffffffffffffffff1673ffffffffffffffffffffffffffffffffffffffff168152602001908152602001600020549050919050565b60006106fc836106f7610aa8565b610929565b905081811015610741576040517f08c379a000000000000000000000000000000000000000000000000000000000815260040161073890611935565b60405180910390fd5b6107558361074d610aa8565b848403610ab0565b61075f8383610efc565b505050565b6000600560009054906101000a900473ffffffffffffffffffffffffffffffffffffffff16905090565b60606004805461079d90611b39565b80601f01602080910402602001604051908101604052809291908181526020018280546107c990611b39565b80156108165780601f106107eb57610100808354040283529160200191610816565b820191906000526020600020905b8154815290600101906020018083116107f957829003601f168201915b5050505050905090565b6000806001600061082f610aa8565b73ffffffffffffffffffffffffffffffffffffffff1673ffffffffffffffffffffffffffffffffffffffff16815260200190815260200160002060008573ffffffffffffffffffffffffffffffffffffffff1673ffffffffffffffffffffffffffffffffffffffff168152602001908152602001600020549050828110156108ec576040517f08c379a00000000000000000000000000000000000000000000000000000000081526004016108e3906119b5565b60405180910390fd5b6109006108f7610aa8565b85858403610ab0565b600191505092915050565b600061091f610918610aa8565b8484610c7b565b6001905092915050565b6000600160008473ffffffffffffffffffffffffffffffffffffffff1673ffffffffffffffffffffffffffffffffffffffff16815260200190815260200160002060008373ffffffffffffffffffffffffffffffffffffffff1673ffffffffffffffffffffffffffffffffffffffff16815260200190815260200160002054905092915050565b6109b8610aa8565b73ffffffffffffffffffffffffffffffffffffffff166109d6610764565b73ffffffffffffffffffffffffffffffffffffffff1614610a2c576040517f08c379a0000000000000000000000000000000000000000000000000000000008152600401610a2390611915565b60405180910390fd5b600073ffffffffffffffffffffffffffffffffffffffff168173ffffffffffffffffffffffffffffffffffffffff161415610a9c576040517f08c379a0000000000000000000000000000000000000000000000000000000008152600401610a9390611895565b60405180910390fd5b610aa5816110d3565b50565b600033905090565b600073ffffffffffffffffffffffffffffffffffffffff168373ffffffffffffffffffffffffffffffffffffffff161415610b20576040517f08c379a0000000000000000000000000000000000000000000000000000000008152600401610b1790611995565b60405180910390fd5b600073ffffffffffffffffffffffffffffffffffffffff168273ffffffffffffffffffffffffffffffffffffffff161415610b90576040517f08c379a0000000000000000000000000000000000000000000000000000000008152600401610b87906118b5565b60405180910390fd5b80600160008573ffffffffffffffffffffffffffffffffffffffff1673ffffffffffffffffffffffffffffffffffffffff16815260200190815260200160002060008473ffffffffffffffffffffffffffffffffffffffff1673ffffffffffffffffffffffffffffffffffffffff168152602001908152602001600020819055508173ffffffffffffffffffffffffffffffffffffffff168373ffffffffffffffffffffffffffffffffffffffff167f8c5be1e5ebec7d5bd14f71427d1e84f3dd0314c0f7b2291e5b200ac8c7c3b92583604051610c6e91906119d5565b60405180910390a3505050565b600073ffffffffffffffffffffffffffffffffffffffff168373ffffffffffffffffffffffffffffffffffffffff161415610ceb576040517f08c379a0000000000000000000000000000000000000000000000000000000008152600401610ce290611975565b60405180910390fd5b600073ffffffffffffffffffffffffffffffffffffffff168273ffffffffffffffffffffffffffffffffffffffff161415610d5b576040517f08c379a0000000000000000000000000000000000000000000000000000000008152600401610d5290611855565b60405180910390fd5b610d66838383611199565b60008060008573ffffffffffffffffffffffffffffffffffffffff1673ffffffffffffffffffffffffffffffffffffffff16815260200190815260200160002054905081811015610dec576040517f08c379a0000000000000000000000000000000000000000000000000000000008152600401610de3906118d5565b60405180910390fd5b8181036000808673ffffffffffffffffffffffffffffffffffffffff1673ffffffffffffffffffffffffffffffffffffffff16815260200190815260200160002081905550816000808573ffffffffffffffffffffffffffffffffffffffff1673ffffffffffffffffffffffffffffffffffffffff1681526020019081526020016000206000828254610e7f9190611a27565b925050819055508273ffffffffffffffffffffffffffffffffffffffff168473ffffffffffffffffffffffffffffffffffffffff167fddf252ad1be2c89b69c2b068fc378daa952ba7f163c4a11628f55a4df523b3ef84604051610ee391906119d5565b60405180910390a3610ef684848461119e565b50505050565b600073ffffffffffffffffffffffffffffffffffffffff168273ffffffffffffffffffffffffffffffffffffffff161415610f6c576040517f08c379a0000000000000000000000000000000000000000000000000000000008152600401610f6390611955565b60405180910390fd5b610f7882600083611199565b60008060008473ffffffffffffffffffffffffffffffffffffffff1673ffffffffffffffffffffffffffffffffffffffff16815260200190815260200160002054905081811015610ffe576040517f08c379a0000000000000000000000000000000000000000000000000000000008152600401610ff590611875565b60405180910390fd5b8181036000808573ffffffffffffffffffffffffffffffffffffffff1673ffffffffffffffffffffffffffffffffffffffff1681526020019081526020016000208190555081600260008282546110559190611a7d565b92505081905550600073ffffffffffffffffffffffffffffffffffffffff168373ffffffffffffffffffffffffffffffffffffffff167fddf252ad1be2c89b69c2b068fc378daa952ba7f163c4a11628f55a4df523b3ef846040516110ba91906119d5565b60405180910390a36110ce8360008461119e565b505050565b6000600560009054906101000a900473ffffffffffffffffffffffffffffffffffffffff16905081600560006101000a81548173ffffffffffffffffffffffffffffffffffffffff021916908373ffffffffffffffffffffffffffffffffffffffff1602179055508173ffffffffffffffffffffffffffffffffffffffff168173ffffffffffffffffffffffffffffffffffffffff167f8be0079c531659141344cd1fd0a4f28419497f9722a3daafe3b4186f6b6457e060405160405180910390a35050565b505050565b505050565b6000813590506111b281611bda565b92915050565b6000813590506111c781611bf1565b92915050565b6000602082840312156111df57600080fd5b60006111ed848285016111a3565b91505092915050565b6000806040838503121561120957600080fd5b6000611217858286016111a3565b9250506020611228858286016111a3565b9150509250929050565b60008060006060848603121561124757600080fd5b6000611255868287016111a3565b9350506020611266868287016111a3565b9250506040611277868287016111b8565b9150509250925092565b6000806040838503121561129457600080fd5b60006112a2858286016111a3565b92505060206112b3858286016111b8565b9150509250929050565b6000602082840312156112cf57600080fd5b60006112dd848285016111b8565b91505092915050565b6112ef81611ab1565b82525050565b6112fe81611ac3565b82525050565b600061130f82611a0b565b6113198185611a16565b9350611329818560208601611b06565b61133281611bc9565b840191505092915050565b600061134a602383611a16565b91507f45524332303a207472616e7366657220746f20746865207a65726f206164647260008301527f65737300000000000000000000000000000000000000000000000000000000006020830152604082019050919050565b60006113b0602283611a16565b91507f45524332303a206275726e20616d6f756e7420657863656564732062616c616e60008301527f63650000000000000000000000000000000000000000000000000000000000006020830152604082019050919050565b6000611416602683611a16565b91507f4f776e61626c653a206e6577206f776e657220697320746865207a65726f206160008301527f64647265737300000000000000000000000000000000000000000000000000006020830152604082019050919050565b600061147c602283611a16565b91507f45524332303a20617070726f766520746f20746865207a65726f20616464726560008301527f73730000000000000000000000000000000000000000000000000000000000006020830152604082019050919050565b60006114e2602683611a16565b91507f45524332303a207472616e7366657220616d6f756e742065786365656473206260008301527f616c616e636500000000000000000000000000000000000000000000000000006020830152604082019050919050565b6000611548602883611a16565b91507f45524332303a207472616e7366657220616d6f756e742065786365656473206160008301527f6c6c6f77616e63650000000000000000000000000000000000000000000000006020830152604082019050919050565b60006115ae602083611a16565b91507f4f776e61626c653a2063616c6c6572206973206e6f7420746865206f776e65726000830152602082019050919050565b60006115ee602483611a16565b91507f45524332303a206275726e20616d6f756e74206578636565647320616c6c6f7760008301527f616e6365000000000000000000000000000000000000000000000000000000006020830152604082019050919050565b6000611654602183611a16565b91507f45524332303a206275726e2066726f6d20746865207a65726f2061646472657360008301527f73000000000000000000000000000000000000000000000000000000000000006020830152604082019050919050565b60006116ba602583611a16565b91507f45524332303a207472616e736665722066726f6d20746865207a65726f20616460008301527f64726573730000000000000000000000000000000000000000000000000000006020830152604082019050919050565b6000611720602483611a16565b91507f45524332303a20617070726f76652066726f6d20746865207a65726f2061646460008301527f72657373000000000000000000000000000000000000000000000000000000006020830152604082019050919050565b6000611786602583611a16565b91507f45524332303a2064656372656173656420616c6c6f77616e63652062656c6f7760008301527f207a65726f0000000000000000000000000000000000000000000000000000006020830152604082019050919050565b6117e881611aef565b82525050565b6117f781611af9565b82525050565b600060208201905061181260008301846112e6565b92915050565b600060208201905061182d60008301846112f5565b92915050565b6000602082019050818103600083015261184d8184611304565b905092915050565b6000602082019050818103600083015261186e8161133d565b9050919050565b6000602082019050818103600083015261188e816113a3565b9050919050565b600060208201905081810360008301526118ae81611409565b9050919050565b600060208201905081810360008301526118ce8161146f565b9050919050565b600060208201905081810360008301526118ee816114d5565b9050919050565b6000602082019050818103600083015261190e8161153b565b9050919050565b6000602082019050818103600083015261192e816115a1565b9050919050565b6000602082019050818103600083015261194e816115e1565b9050919050565b6000602082019050818103600083015261196e81611647565b9050919050565b6000602082019050818103600083015261198e816116ad565b9050919050565b600060208201905081810360008301526119ae81611713565b9050919050565b600060208201905081810360008301526119ce81611779565b9050919050565b60006020820190506119ea60008301846117df565b92915050565b6000602082019050611a0560008301846117ee565b92915050565b600081519050919050565b600082825260208201905092915050565b6000611a3282611aef565b9150611a3d83611aef565b9250827fffffffffffffffffffffffffffffffffffffffffffffffffffffffffffffffff03821115611a7257611a71611b6b565b5b828201905092915050565b6000611a8882611aef565b9150611a9383611aef565b925082821015611aa657611aa5611b6b565b5b828203905092915050565b6000611abc82611acf565b9050919050565b60008115159050919050565b600073ffffffffffffffffffffffffffffffffffffffff82169050919050565b6000819050919050565b600060ff82169050919050565b60005b83811015611b24578082015181840152602081019050611b09565b83811115611b33576000848401525b50505050565b60006002820490506001821680611b5157607f821691505b60208210811415611b6557611b64611b9a565b5b50919050565b7f4e487b7100000000000000000000000000000000000000000000000000000000600052601160045260246000fd5b7f4e487b7100000000000000000000000000000000000000000000000000000000600052602260045260246000fd5b6000601f19601f8301169050919050565b611be381611ab1565b8114611bee57600080fd5b50565b611bfa81611aef565b8114611c0557600080fd5b5056fea26469706673582212207e7395bcea42b3d6c2333fbe4799be0e8b2e4e4bc464f69f1f37560f64d0251264736f6c63430008000033",
  "linkReferences": {},
  "deployedLinkReferences": {}
}