{
  "_format": "hh-sol-artifact-1",
  "contractName": "VerifySignature",
  "sourceName": "contracts/VerifySignature.sol",
  "abi": [
    {
      "inputs": [
        {
          "internalType": "bytes32",
          "name": "_messageHash",
          "type": "bytes32"
        }
      ],
      "name": "getEthSignedMessageHash",
      "outputs": [
        {
          "internalType": "bytes32",
          "name": "",
          "type": "bytes32"
        }
      ],
      "stateMutability": "pure",
      "type": "function"
    },
    {
      "inputs": [
        {
          "internalType": "string",
          "name": "_message",
          "type": "string"
        }
      ],
      "name": "getMessageHash",
      "outputs": [
        {
          "internalType": "bytes32",
          "name": "",
          "type": "bytes32"
        }
      ],
      "stateMutability": "pure",
      "type": "function"
    },
    {
      "inputs": [
        {
          "internalType": "bytes32",
          "name": "_ethSignedMessageHash",
          "type": "bytes32"
        },
        {
          "internalType": "bytes",
          "name": "_sig",
          "type": "bytes"
        }
      ],
      "name": "recover",
      "outputs": [
        {
          "internalType": "address",
          "name": "",
          "type": "address"
        }
      ],
      "stateMutability": "pure",
      "type": "function"
    },
    {
      "inputs": [
        {
          "internalType": "address",
          "name": "_signer",
          "type": "address"
        },
        {
          "internalType": "string",
          "name": "_message",
          "type": "string"
        },
        {
          "internalType": "bytes",
          "name": "_sig",
          "type": "bytes"
        }
      ],
      "name": "verify",
      "outputs": [
        {
          "internalType": "bool",
          "name": "",
          "type": "bool"
        }
      ],
      "stateMutability": "pure",
      "type": "function"
    }
  ],
  "bytecode": "0x608060405234801561001057600080fd5b506108c0806100206000396000f3fe608060405234801561001057600080fd5b506004361061004c5760003560e01c806319045a25146100515780632dd34f0f14610081578063b446f3b2146100b1578063fa540801146100e1575b600080fd5b61006b60048036038101906100669190610448565b610111565b604051610078919061061e565b60405180910390f35b61009b600480360381019061009691906103a0565b610180565b6040516100a89190610639565b60405180910390f35b6100cb60048036038101906100c6919061049c565b6101de565b6040516100d89190610654565b60405180910390f35b6100fb60048036038101906100f6919061041f565b61020e565b6040516101089190610654565b60405180910390f35b6000806000806101208561023e565b92509250925060018682858560405160008152602001604052604051610149949392919061066f565b6020604051602081039080840390855afa15801561016b573d6000803e3d6000fd5b50505060206040510351935050505092915050565b60008061018c846101de565b905060006101998261020e565b90508573ffffffffffffffffffffffffffffffffffffffff166101bc8286610111565b73ffffffffffffffffffffffffffffffffffffffff1614925050509392505050565b6000816040516020016101f191906105e1565b604051602081830303815290604052805190602001209050919050565b60008160405160200161022191906105f8565b604051602081830303815290604052805190602001209050919050565b60008060006041845114610287576040517f08c379a000000000000000000000000000000000000000000000000000000000815260040161027e906106b4565b60405180910390fd5b6020840151925060408401519150606084015160001a90509193909250565b60006102b96102b484610705565b6106d4565b9050828152602081018484840111156102d157600080fd5b6102dc8482856107e1565b509392505050565b60006102f76102f284610735565b6106d4565b90508281526020810184848401111561030f57600080fd5b61031a8482856107e1565b509392505050565b6000813590506103318161085c565b92915050565b60008135905061034681610873565b92915050565b600082601f83011261035d57600080fd5b813561036d8482602086016102a6565b91505092915050565b600082601f83011261038757600080fd5b81356103978482602086016102e4565b91505092915050565b6000806000606084860312156103b557600080fd5b60006103c386828701610322565b935050602084013567ffffffffffffffff8111156103e057600080fd5b6103ec86828701610376565b925050604084013567ffffffffffffffff81111561040957600080fd5b6104158682870161034c565b9150509250925092565b60006020828403121561043157600080fd5b600061043f84828501610337565b91505092915050565b6000806040838503121561045b57600080fd5b600061046985828601610337565b925050602083013567ffffffffffffffff81111561048657600080fd5b6104928582860161034c565b9150509250929050565b6000602082840312156104ae57600080fd5b600082013567ffffffffffffffff8111156104c857600080fd5b6104d484828501610376565b91505092915050565b6104e68161078c565b82525050565b6104f58161079e565b82525050565b610504816107aa565b82525050565b61051b610516826107aa565b610823565b82525050565b600061052c82610765565b6105368185610781565b93506105468185602086016107f0565b80840191505092915050565b600061055f601c83610781565b91507f19457468657265756d205369676e6564204d6573736167653a0a3332000000006000830152601c82019050919050565b600061059f601883610770565b91507f696e76616c6964207369676e6174757265206c656e67746800000000000000006000830152602082019050919050565b6105db816107d4565b82525050565b60006105ed8284610521565b915081905092915050565b600061060382610552565b915061060f828461050a565b60208201915081905092915050565b600060208201905061063360008301846104dd565b92915050565b600060208201905061064e60008301846104ec565b92915050565b600060208201905061066960008301846104fb565b92915050565b600060808201905061068460008301876104fb565b61069160208301866105d2565b61069e60408301856104fb565b6106ab60608301846104fb565b95945050505050565b600060208201905081810360008301526106cd81610592565b9050919050565b6000604051905081810181811067ffffffffffffffff821117156106fb576106fa61082d565b5b8060405250919050565b600067ffffffffffffffff8211156107205761071f61082d565b5b601f19601f8301169050602081019050919050565b600067ffffffffffffffff8211156107505761074f61082d565b5b601f19601f8301169050602081019050919050565b600081519050919050565b600082825260208201905092915050565b600081905092915050565b6000610797826107b4565b9050919050565b60008115159050919050565b6000819050919050565b600073ffffffffffffffffffffffffffffffffffffffff82169050919050565b600060ff82169050919050565b82818337600083830152505050565b60005b8381101561080e5780820151818401526020810190506107f3565b8381111561081d576000848401525b50505050565b6000819050919050565b7f4e487b7100000000000000000000000000000000000000000000000000000000600052604160045260246000fd5b6108658161078c565b811461087057600080fd5b50565b61087c816107aa565b811461088757600080fd5b5056fea264697066735822122099827c784ee736978e5825db04005816391e4baaca8ff1a12fe92ea41d8564f864736f6c63430008000033",
  "linkReferences": {},
  "deployedLinkReferences": {}
}