{
  "_format": "hh-sol-artifact-1",
  "contractName": "Account",
  "sourceName": "contracts/Account.sol",
  "abi": [
    {
      "inputs": [],
      "stateMutability": "nonpayable",
      "type": "constructor"
    },
    {
      "anonymous": false,
      "inputs": [
        {
          "indexed": true,
          "internalType": "address",
          "name": "previousOwner",
          "type": "address"
        },
        {
          "indexed": true,
          "internalType": "address",
          "name": "newOwner",
          "type": "address"
        }
      ],
      "name": "OwnershipTransferred",
      "type": "event"
    },
    {
      "inputs": [
        {
          "internalType": "uint256",
          "name": "itemId",
          "type": "uint256"
        }
      ],
      "name": "RemoveItemFromVault",
      "outputs": [],
      "stateMutability": "nonpayable",
      "type": "function"
    },
    {
      "inputs": [],
      "name": "_data",
      "outputs": [
        {
          "internalType": "bytes",
          "name": "",
          "type": "bytes"
        }
      ],
      "stateMutability": "view",
      "type": "function"
    },
    {
      "inputs": [],
      "name": "_from",
      "outputs": [
        {
          "internalType": "address",
          "name": "",
          "type": "address"
        }
      ],
      "stateMutability": "view",
      "type": "function"
    },
    {
      "inputs": [],
      "name": "_id",
      "outputs": [
        {
          "internalType": "uint256",
          "name": "",
          "type": "uint256"
        }
      ],
      "stateMutability": "view",
      "type": "function"
    },
    {
      "inputs": [],
      "name": "_operator",
      "outputs": [
        {
          "internalType": "address",
          "name": "",
          "type": "address"
        }
      ],
      "stateMutability": "view",
      "type": "function"
    },
    {
      "inputs": [],
      "name": "account_contract_addr",
      "outputs": [
        {
          "internalType": "address",
          "name": "",
          "type": "address"
        }
      ],
      "stateMutability": "view",
      "type": "function"
    },
    {
      "inputs": [
        {
          "internalType": "address",
          "name": "to",
          "type": "address"
        },
        {
          "internalType": "address",
          "name": "nftContract",
          "type": "address"
        },
        {
          "internalType": "uint256",
          "name": "tokenId",
          "type": "uint256"
        }
      ],
      "name": "approve",
      "outputs": [],
      "stateMutability": "nonpayable",
      "type": "function"
    },
    {
      "inputs": [],
      "name": "balance",
      "outputs": [
        {
          "internalType": "uint256",
          "name": "",
          "type": "uint256"
        }
      ],
      "stateMutability": "view",
      "type": "function"
    },
    {
      "inputs": [
        {
          "internalType": "address",
          "name": "",
          "type": "address"
        }
      ],
      "name": "is1155",
      "outputs": [
        {
          "internalType": "bool",
          "name": "",
          "type": "bool"
        }
      ],
      "stateMutability": "view",
      "type": "function"
    },
    {
      "inputs": [
        {
          "internalType": "address",
          "name": "",
          "type": "address"
        }
      ],
      "name": "is721",
      "outputs": [
        {
          "internalType": "bool",
          "name": "",
          "type": "bool"
        }
      ],
      "stateMutability": "view",
      "type": "function"
    },
    {
      "inputs": [
        {
          "internalType": "address",
          "name": "operator",
          "type": "address"
        },
        {
          "internalType": "address",
          "name": "from",
          "type": "address"
        },
        {
          "internalType": "uint256[]",
          "name": "ids",
          "type": "uint256[]"
        },
        {
          "internalType": "uint256[]",
          "name": "values",
          "type": "uint256[]"
        },
        {
          "internalType": "bytes",
          "name": "data",
          "type": "bytes"
        }
      ],
      "name": "onERC1155BatchReceived",
      "outputs": [
        {
          "internalType": "bytes4",
          "name": "",
          "type": "bytes4"
        }
      ],
      "stateMutability": "nonpayable",
      "type": "function"
    },
    {
      "inputs": [
        {
          "internalType": "address",
          "name": "operator",
          "type": "address"
        },
        {
          "internalType": "address",
          "name": "from",
          "type": "address"
        },
        {
          "internalType": "uint256",
          "name": "id",
          "type": "uint256"
        },
        {
          "internalType": "uint256",
          "name": "value",
          "type": "uint256"
        },
        {
          "internalType": "bytes",
          "name": "data",
          "type": "bytes"
        }
      ],
      "name": "onERC1155Received",
      "outputs": [
        {
          "internalType": "bytes4",
          "name": "",
          "type": "bytes4"
        }
      ],
      "stateMutability": "nonpayable",
      "type": "function"
    },
    {
      "inputs": [
        {
          "internalType": "address",
          "name": "operator",
          "type": "address"
        },
        {
          "internalType": "address",
          "name": "from",
          "type": "address"
        },
        {
          "internalType": "uint256",
          "name": "id",
          "type": "uint256"
        },
        {
          "internalType": "bytes",
          "name": "data",
          "type": "bytes"
        }
      ],
      "name": "onERC721Received",
      "outputs": [
        {
          "internalType": "bytes4",
          "name": "",
          "type": "bytes4"
        }
      ],
      "stateMutability": "nonpayable",
      "type": "function"
    },
    {
      "inputs": [],
      "name": "owner",
      "outputs": [
        {
          "internalType": "address",
          "name": "",
          "type": "address"
        }
      ],
      "stateMutability": "view",
      "type": "function"
    },
    {
      "inputs": [
        {
          "internalType": "address",
          "name": "nftContract",
          "type": "address"
        },
        {
          "internalType": "uint256",
          "name": "tokenId",
          "type": "uint256"
        }
      ],
      "name": "ownerOf",
      "outputs": [
        {
          "internalType": "address",
          "name": "",
          "type": "address"
        }
      ],
      "stateMutability": "view",
      "type": "function"
    },
    {
      "inputs": [],
      "name": "play",
      "outputs": [
        {
          "internalType": "uint256",
          "name": "",
          "type": "uint256"
        }
      ],
      "stateMutability": "view",
      "type": "function"
    },
    {
      "inputs": [],
      "name": "renounceOwnership",
      "outputs": [],
      "stateMutability": "nonpayable",
      "type": "function"
    },
    {
      "inputs": [
        {
          "internalType": "address",
          "name": "nftContract",
          "type": "address"
        },
        {
          "internalType": "uint256",
          "name": "tokenId",
          "type": "uint256"
        },
        {
          "internalType": "uint256",
          "name": "price",
          "type": "uint256"
        },
        {
          "internalType": "uint256",
          "name": "_seconds",
          "type": "uint256"
        }
      ],
      "name": "rentNFT",
      "outputs": [],
      "stateMutability": "nonpayable",
      "type": "function"
    },
    {
      "inputs": [
        {
          "internalType": "address",
          "name": "to",
          "type": "address"
        },
        {
          "internalType": "address",
          "name": "nftContract",
          "type": "address"
        },
        {
          "internalType": "uint256[]",
          "name": "ids",
          "type": "uint256[]"
        },
        {
          "internalType": "uint256[]",
          "name": "amounts",
          "type": "uint256[]"
        },
        {
          "internalType": "bytes",
          "name": "data",
          "type": "bytes"
        }
      ],
      "name": "safeBatchTransferFrom",
      "outputs": [],
      "stateMutability": "nonpayable",
      "type": "function"
    },
    {
      "inputs": [
        {
          "internalType": "address",
          "name": "to",
          "type": "address"
        },
        {
          "internalType": "address",
          "name": "nftContract",
          "type": "address"
        },
        {
          "internalType": "uint256",
          "name": "tokenId",
          "type": "uint256"
        }
      ],
      "name": "safeTransferFrom",
      "outputs": [],
      "stateMutability": "nonpayable",
      "type": "function"
    },
    {
      "inputs": [
        {
          "internalType": "address",
          "name": "to",
          "type": "address"
        },
        {
          "internalType": "address",
          "name": "nftContract",
          "type": "address"
        },
        {
          "internalType": "uint256",
          "name": "tokenId",
          "type": "uint256"
        },
        {
          "internalType": "bytes",
          "name": "data",
          "type": "bytes"
        }
      ],
      "name": "safeTransferFrom",
      "outputs": [],
      "stateMutability": "nonpayable",
      "type": "function"
    },
    {
      "inputs": [
        {
          "internalType": "address",
          "name": "to",
          "type": "address"
        },
        {
          "internalType": "address",
          "name": "nftContract",
          "type": "address"
        },
        {
          "internalType": "uint256",
          "name": "tokenId",
          "type": "uint256"
        },
        {
          "internalType": "uint256",
          "name": "amount",
          "type": "uint256"
        },
        {
          "internalType": "bytes",
          "name": "data",
          "type": "bytes"
        }
      ],
      "name": "safeTransferFrom",
      "outputs": [],
      "stateMutability": "nonpayable",
      "type": "function"
    },
    {
      "inputs": [
        {
          "internalType": "address",
          "name": "nftContract",
          "type": "address"
        },
        {
          "internalType": "address",
          "name": "operator",
          "type": "address"
        },
        {
          "internalType": "bool",
          "name": "_approved",
          "type": "bool"
        }
      ],
      "name": "setApprovalForAll",
      "outputs": [],
      "stateMutability": "nonpayable",
      "type": "function"
    },
    {
      "inputs": [
        {
          "internalType": "bytes4",
          "name": "interfaceId",
          "type": "bytes4"
        }
      ],
      "name": "supportsInterface",
      "outputs": [
        {
          "internalType": "bool",
          "name": "",
          "type": "bool"
        }
      ],
      "stateMutability": "view",
      "type": "function"
    },
    {
      "inputs": [
        {
          "internalType": "address payable",
          "name": "to",
          "type": "address"
        },
        {
          "internalType": "uint256",
          "name": "amount",
          "type": "uint256"
        }
      ],
      "name": "transferETH",
      "outputs": [],
      "stateMutability": "nonpayable",
      "type": "function"
    },
    {
      "inputs": [
        {
          "internalType": "address",
          "name": "to",
          "type": "address"
        },
        {
          "internalType": "address",
          "name": "nftContract",
          "type": "address"
        },
        {
          "internalType": "uint256",
          "name": "tokenId",
          "type": "uint256"
        }
      ],
      "name": "transferFrom",
      "outputs": [],
      "stateMutability": "nonpayable",
      "type": "function"
    },
    {
      "inputs": [
        {
          "internalType": "address",
          "name": "newOwner",
          "type": "address"
        }
      ],
      "name": "transferOwnership",
      "outputs": [],
      "stateMutability": "nonpayable",
      "type": "function"
    },
    {
      "inputs": [],
      "name": "val",
      "outputs": [
        {
          "internalType": "uint256",
          "name": "",
          "type": "uint256"
        }
      ],
      "stateMutability": "view",
      "type": "function"
    },
    {
      "stateMutability": "payable",
      "type": "receive"
    }
  ],
  "bytecode": "0x60806040523480156200001157600080fd5b506000806000803373ffffffffffffffffffffffffffffffffffffffff1663890357306040518163ffffffff1660e01b815260040160806040518083038186803b1580156200005f57600080fd5b505afa15801562000074573d6000803e3d6000fd5b505050506040513d601f19601f820116820180604052508101906200009a91906200029d565b9350935093509350836000806101000a81548173ffffffffffffffffffffffffffffffffffffffff021916908373ffffffffffffffffffffffffffffffffffffffff16021790555081600460006101000a81548173ffffffffffffffffffffffffffffffffffffffff021916908373ffffffffffffffffffffffffffffffffffffffff1602179055506200013483620001c060201b60201c565b83600260006101000a81548173ffffffffffffffffffffffffffffffffffffffff021916908373ffffffffffffffffffffffffffffffffffffffff16021790555080600360006101000a81548173ffffffffffffffffffffffffffffffffffffffff021916908373ffffffffffffffffffffffffffffffffffffffff1602179055505050505062000357565b6000600160009054906101000a900473ffffffffffffffffffffffffffffffffffffffff16905081600160006101000a81548173ffffffffffffffffffffffffffffffffffffffff021916908373ffffffffffffffffffffffffffffffffffffffff1602179055508173ffffffffffffffffffffffffffffffffffffffff168173ffffffffffffffffffffffffffffffffffffffff167f8be0079c531659141344cd1fd0a4f28419497f9722a3daafe3b4186f6b6457e060405160405180910390a35050565b60008151905062000297816200033d565b92915050565b60008060008060808587031215620002b457600080fd5b6000620002c48782880162000286565b9450506020620002d78782880162000286565b9350506040620002ea8782880162000286565b9250506060620002fd8782880162000286565b91505092959194509250565b600062000316826200031d565b9050919050565b600073ffffffffffffffffffffffffffffffffffffffff82169050919050565b620003488162000309565b81146200035457600080fd5b50565b6134bd80620003676000396000f3fe6080604052600436106101bb5760003560e01c806368beab3f116100ec578063b88d4fde1161008a578063f23a6e6111610064578063f23a6e6114610615578063f242432a14610652578063f2d717851461067b578063f2fde38b146106a6576101c2565b8063b88d4fde14610586578063bc197c81146105af578063e1f21c67146105ec576101c2565b80637b1a4909116100c65780637b1a4909146104dc5780638da5cb5b1461050557806393e84cd914610530578063b69ef8a81461055b576101c2565b806368beab3f1461046f57806370b0a8431461049a578063715018a6146104c5576101c2565b80632eb2c2d6116101595780633c6bb436116101335780633c6bb436146103b357806342842e0e146103de5780635dd5ed3e1461040757806361f3352514610432576101c2565b80632eb2c2d614610338578063367605ca1461036157806339c462d41461038a576101c2565b8063150b7a0211610195578063150b7a021461026c5780631f29d2dc146102a957806323b872dd146102e65780632429ca161461030f576101c2565b806301ffc9a7146101c757806304811f5a146102045780630518023714610241576101c2565b366101c257005b600080fd5b3480156101d357600080fd5b506101ee60048036038101906101e99190612acd565b6106cf565b6040516101fb9190612fcd565b60405180910390f35b34801561021057600080fd5b5061022b60048036038101906102269190612683565b610749565b6040516102389190612fcd565b60405180910390f35b34801561024d57600080fd5b50610256610769565b60405161026391906130c5565b60405180910390f35b34801561027857600080fd5b50610293600480360381019061028e91906128fb565b61076f565b6040516102a09190612fe8565b60405180910390f35b3480156102b557600080fd5b506102d060048036038101906102cb9190612a05565b610960565b6040516102dd9190612da5565b60405180910390f35b3480156102f257600080fd5b5061030d6004803603810190610308919061282c565b610a68565b005b34801561031b57600080fd5b5061033660048036038101906103319190612a41565b610c36565b005b34801561034457600080fd5b5061035f600480360381019061035a9190612711565b610d4b565b005b34801561036d57600080fd5b50610388600480360381019061038391906127dd565b610fa2565b005b34801561039657600080fd5b506103b160048036038101906103ac9190612af6565b61115c565b005b3480156103bf57600080fd5b506103c8611289565b6040516103d591906130c5565b60405180910390f35b3480156103ea57600080fd5b506104056004803603810190610400919061282c565b61128f565b005b34801561041357600080fd5b5061041c611475565b6040516104299190612da5565b60405180910390f35b34801561043e57600080fd5b5061045960048036038101906104549190612683565b61147d565b6040516104669190612fcd565b60405180910390f35b34801561047b57600080fd5b5061048461149d565b6040516104919190613003565b60405180910390f35b3480156104a657600080fd5b506104af61152b565b6040516104bc9190612da5565b60405180910390f35b3480156104d157600080fd5b506104da611551565b005b3480156104e857600080fd5b5061050360048036038101906104fe91906126d5565b6115f4565b005b34801561051157600080fd5b5061051a6116fe565b6040516105279190612da5565b60405180910390f35b34801561053c57600080fd5b50610545611728565b60405161055291906130c5565b60405180910390f35b34801561056757600080fd5b5061057061188b565b60405161057d91906130c5565b60405180910390f35b34801561059257600080fd5b506105ad60048036038101906105a8919061287b565b611891565b005b3480156105bb57600080fd5b506105d660048036038101906105d19190612711565b611a7d565b6040516105e39190612fe8565b60405180910390f35b3480156105f857600080fd5b50610613600480360381019061060e919061282c565b611d89565b005b34801561062157600080fd5b5061063c60048036038101906106379190612976565b611e77565b6040516106499190612fe8565b60405180910390f35b34801561065e57600080fd5b5061067960048036038101906106749190612976565b612059565b005b34801561068757600080fd5b50610690612245565b60405161069d9190612da5565b60405180910390f35b3480156106b257600080fd5b506106cd60048036038101906106c89190612683565b61226b565b005b60007f4e2312e0000000000000000000000000000000000000000000000000000000007bffffffffffffffffffffffffffffffffffffffffffffffffffffffff1916827bffffffffffffffffffffffffffffffffffffffffffffffffffffffff1916148061074257506107418261237e565b5b9050919050565b600b6020528060005260406000206000915054906101000a900460ff1681565b60085481565b60006001600c600061077f6123e8565b73ffffffffffffffffffffffffffffffffffffffff1673ffffffffffffffffffffffffffffffffffffffff16815260200190815260200160002060006101000a81548160ff0219169083151502179055506107d86123e8565b73ffffffffffffffffffffffffffffffffffffffff166107f66123e8565b73ffffffffffffffffffffffffffffffffffffffff1663081812fc856040518263ffffffff1660e01b815260040161082e91906130c5565b60206040518083038186803b15801561084657600080fd5b505afa15801561085a573d6000803e3d6000fd5b505050506040513d601f19601f8201168201806040525081019061087e91906126ac565b73ffffffffffffffffffffffffffffffffffffffff1614610930576108a16123e8565b73ffffffffffffffffffffffffffffffffffffffff1663095ea7b3600460009054906101000a900473ffffffffffffffffffffffffffffffffffffffff16856040518363ffffffff1660e01b81526004016108fd929190612f5f565b600060405180830381600087803b15801561091757600080fd5b505af115801561092b573d6000803e3d6000fd5b505050505b600160056000828254610943919061317f565b92505081905550610956858585856123f0565b9050949350505050565b6000808373ffffffffffffffffffffffffffffffffffffffff16636352211e846040518263ffffffff1660e01b815260040161099c91906130c5565b60206040518083038186803b1580156109b457600080fd5b505afa1580156109c8573d6000803e3d6000fd5b505050506040513d601f19601f820116820180604052508101906109ec91906126ac565b9050600073ffffffffffffffffffffffffffffffffffffffff168173ffffffffffffffffffffffffffffffffffffffff161415610a5e576040517f08c379a0000000000000000000000000000000000000000000000000000000008152600401610a5590613065565b60405180910390fd5b8091505092915050565b60008054906101000a900473ffffffffffffffffffffffffffffffffffffffff1673ffffffffffffffffffffffffffffffffffffffff16635c975abb6040518163ffffffff1660e01b815260040160206040518083038186803b158015610ace57600080fd5b505afa158015610ae2573d6000803e3d6000fd5b505050506040513d601f19601f82011682018060405250810190610b069190612aa4565b15610b46576040517f08c379a0000000000000000000000000000000000000000000000000000000008152600401610b3d90613045565b60405180910390fd5b610b4e6123e8565b73ffffffffffffffffffffffffffffffffffffffff16610b6c6116fe565b73ffffffffffffffffffffffffffffffffffffffff1614610bc2576040517f08c379a0000000000000000000000000000000000000000000000000000000008152600401610bb990613085565b60405180910390fd5b8173ffffffffffffffffffffffffffffffffffffffff166323b872dd3085846040518463ffffffff1660e01b8152600401610bff93929190612e57565b600060405180830381600087803b158015610c1957600080fd5b505af1158015610c2d573d6000803e3d6000fd5b50505050505050565b610c3e6123e8565b73ffffffffffffffffffffffffffffffffffffffff16610c5c6116fe565b73ffffffffffffffffffffffffffffffffffffffff1614610cb2576040517f08c379a0000000000000000000000000000000000000000000000000000000008152600401610ca990613085565b60405180910390fd5b600460009054906101000a900473ffffffffffffffffffffffffffffffffffffffff1673ffffffffffffffffffffffffffffffffffffffff16633a8b9cd4858585856040518563ffffffff1660e01b8152600401610d139493929190612f88565b600060405180830381600087803b158015610d2d57600080fd5b505af1158015610d41573d6000803e3d6000fd5b5050505050505050565b60008054906101000a900473ffffffffffffffffffffffffffffffffffffffff1673ffffffffffffffffffffffffffffffffffffffff16635c975abb6040518163ffffffff1660e01b815260040160206040518083038186803b158015610db157600080fd5b505afa158015610dc5573d6000803e3d6000fd5b505050506040513d601f19601f82011682018060405250810190610de99190612aa4565b15610e29576040517f08c379a0000000000000000000000000000000000000000000000000000000008152600401610e2090613045565b60405180910390fd5b610e316123e8565b73ffffffffffffffffffffffffffffffffffffffff16610e4f6116fe565b73ffffffffffffffffffffffffffffffffffffffff1614610ea5576040517f08c379a0000000000000000000000000000000000000000000000000000000008152600401610e9c90613085565b60405180910390fd5b8673ffffffffffffffffffffffffffffffffffffffff16632eb2c2d6308a8989898989896040518963ffffffff1660e01b8152600401610eec989796959493929190612de9565b600060405180830381600087803b158015610f0657600080fd5b505af1158015610f1a573d6000803e3d6000fd5b5050505060005b84849050811015610f9757848482818110610f65577f4e487b7100000000000000000000000000000000000000000000000000000000600052603260045260246000fd5b9050602002013560056000828254610f7d91906131d5565b925050819055508080610f8f9061332d565b915050610f21565b505050505050505050565b610faa6123e8565b73ffffffffffffffffffffffffffffffffffffffff16610fc86116fe565b73ffffffffffffffffffffffffffffffffffffffff161461101e576040517f08c379a000000000000000000000000000000000000000000000000000000000815260040161101590613085565b60405180910390fd5b60011515600b60008573ffffffffffffffffffffffffffffffffffffffff1673ffffffffffffffffffffffffffffffffffffffff16815260200190815260200160002060009054906101000a900460ff16151514156110e9578273ffffffffffffffffffffffffffffffffffffffff1663a22cb46583836040518363ffffffff1660e01b81526004016110b2929190612f36565b600060405180830381600087803b1580156110cc57600080fd5b505af11580156110e0573d6000803e3d6000fd5b50505050611157565b8273ffffffffffffffffffffffffffffffffffffffff1663a22cb46583836040518363ffffffff1660e01b8152600401611124929190612f36565b600060405180830381600087803b15801561113e57600080fd5b505af1158015611152573d6000803e3d6000fd5b505050505b505050565b6111646123e8565b73ffffffffffffffffffffffffffffffffffffffff166111826116fe565b73ffffffffffffffffffffffffffffffffffffffff16146111d8576040517f08c379a00000000000000000000000000000000000000000000000000000000081526004016111cf90613085565b60405180910390fd5b600460009054906101000a900473ffffffffffffffffffffffffffffffffffffffff1673ffffffffffffffffffffffffffffffffffffffff166339c462d4826040518263ffffffff1660e01b815260040161123391906130c5565b602060405180830381600087803b15801561124d57600080fd5b505af1158015611261573d6000803e3d6000fd5b505050506040513d601f19601f820116820180604052508101906112859190612aa4565b5050565b60065481565b60008054906101000a900473ffffffffffffffffffffffffffffffffffffffff1673ffffffffffffffffffffffffffffffffffffffff16635c975abb6040518163ffffffff1660e01b815260040160206040518083038186803b1580156112f557600080fd5b505afa158015611309573d6000803e3d6000fd5b505050506040513d601f19601f8201168201806040525081019061132d9190612aa4565b1561136d576040517f08c379a000000000000000000000000000000000000000000000000000000000815260040161136490613045565b60405180910390fd5b6113756123e8565b73ffffffffffffffffffffffffffffffffffffffff166113936116fe565b73ffffffffffffffffffffffffffffffffffffffff16146113e9576040517f08c379a00000000000000000000000000000000000000000000000000000000081526004016113e090613085565b60405180910390fd5b8173ffffffffffffffffffffffffffffffffffffffff166342842e0e3085846040518463ffffffff1660e01b815260040161142693929190612e57565b600060405180830381600087803b15801561144057600080fd5b505af1158015611454573d6000803e3d6000fd5b505050506005600081548092919061146b906132d1565b9190505550505050565b600030905090565b600c6020528060005260406000206000915054906101000a900460ff1681565b600780546114aa906132fb565b80601f01602080910402602001604051908101604052809291908181526020018280546114d6906132fb565b80156115235780601f106114f857610100808354040283529160200191611523565b820191906000526020600020905b81548152906001019060200180831161150657829003601f168201915b505050505081565b600960009054906101000a900473ffffffffffffffffffffffffffffffffffffffff1681565b6115596123e8565b73ffffffffffffffffffffffffffffffffffffffff16600260009054906101000a900473ffffffffffffffffffffffffffffffffffffffff1673ffffffffffffffffffffffffffffffffffffffff16146115e8576040517f08c379a00000000000000000000000000000000000000000000000000000000081526004016115df90613085565b60405180910390fd5b6115f26000612404565b565b6115fc6123e8565b73ffffffffffffffffffffffffffffffffffffffff1661161a6116fe565b73ffffffffffffffffffffffffffffffffffffffff1614611670576040517f08c379a000000000000000000000000000000000000000000000000000000000815260040161166790613085565b60405180910390fd5b478111156116b3576040517f08c379a00000000000000000000000000000000000000000000000000000000081526004016116aa906130a5565b60405180910390fd5b8173ffffffffffffffffffffffffffffffffffffffff166108fc829081150290604051600060405180830381858888f193505050501580156116f9573d6000803e3d6000fd5b505050565b6000600160009054906101000a900473ffffffffffffffffffffffffffffffffffffffff16905090565b60006117326123e8565b73ffffffffffffffffffffffffffffffffffffffff166117506116fe565b73ffffffffffffffffffffffffffffffffffffffff16146117a6576040517f08c379a000000000000000000000000000000000000000000000000000000000815260040161179d90613085565b60405180910390fd5b60008054906101000a900473ffffffffffffffffffffffffffffffffffffffff1673ffffffffffffffffffffffffffffffffffffffff16635c975abb6040518163ffffffff1660e01b815260040160206040518083038186803b15801561180c57600080fd5b505afa158015611820573d6000803e3d6000fd5b505050506040513d601f19601f820116820180604052508101906118449190612aa4565b15611884576040517f08c379a000000000000000000000000000000000000000000000000000000000815260040161187b90613045565b60405180910390fd5b6000905090565b60055481565b60008054906101000a900473ffffffffffffffffffffffffffffffffffffffff1673ffffffffffffffffffffffffffffffffffffffff16635c975abb6040518163ffffffff1660e01b815260040160206040518083038186803b1580156118f757600080fd5b505afa15801561190b573d6000803e3d6000fd5b505050506040513d601f19601f8201168201806040525081019061192f9190612aa4565b1561196f576040517f08c379a000000000000000000000000000000000000000000000000000000000815260040161196690613045565b60405180910390fd5b6119776123e8565b73ffffffffffffffffffffffffffffffffffffffff166119956116fe565b73ffffffffffffffffffffffffffffffffffffffff16146119eb576040517f08c379a00000000000000000000000000000000000000000000000000000000081526004016119e290613085565b60405180910390fd5b8373ffffffffffffffffffffffffffffffffffffffff1663b88d4fde30878686866040518663ffffffff1660e01b8152600401611a2c959493929190612e8e565b600060405180830381600087803b158015611a4657600080fd5b505af1158015611a5a573d6000803e3d6000fd5b5050505060056000815480929190611a71906132d1565b91905055505050505050565b60006001600b6000611a8d6123e8565b73ffffffffffffffffffffffffffffffffffffffff1673ffffffffffffffffffffffffffffffffffffffff16815260200190815260200160002060006101000a81548160ff02191690831515021790555060005b85859050811015611b5757858582818110611b25577f4e487b7100000000000000000000000000000000000000000000000000000000600052603260045260246000fd5b9050602002013560056000828254611b3d919061317f565b925050819055508080611b4f9061332d565b915050611ae1565b50611b606123e8565b73ffffffffffffffffffffffffffffffffffffffff1663e985e9c530600460009054906101000a900473ffffffffffffffffffffffffffffffffffffffff166040518363ffffffff1660e01b8152600401611bbc929190612dc0565b60206040518083038186803b158015611bd457600080fd5b505afa158015611be8573d6000803e3d6000fd5b505050506040513d601f19601f82011682018060405250810190611c0c9190612aa4565b611ca857611c186123e8565b73ffffffffffffffffffffffffffffffffffffffff1663a22cb465600460009054906101000a900473ffffffffffffffffffffffffffffffffffffffff1660016040518363ffffffff1660e01b8152600401611c75929190612f36565b600060405180830381600087803b158015611c8f57600080fd5b505af1158015611ca3573d6000803e3d6000fd5b505050505b611d7b8989898980806020026020016040519081016040528093929190818152602001838360200280828437600081840152601f19601f82011690508083019250505050505050888880806020026020016040519081016040528093929190818152602001838360200280828437600081840152601f19601f8201169050808301925050505050505087878080601f016020809104026020016040519081016040528093929190818152602001838380828437600081840152601f19601f820116905080830192505050505050506124ca565b905098975050505050505050565b611d916123e8565b73ffffffffffffffffffffffffffffffffffffffff16611daf6116fe565b73ffffffffffffffffffffffffffffffffffffffff1614611e05576040517f08c379a0000000000000000000000000000000000000000000000000000000008152600401611dfc90613085565b60405180910390fd5b8173ffffffffffffffffffffffffffffffffffffffff1663095ea7b384836040518363ffffffff1660e01b8152600401611e40929190612f5f565b600060405180830381600087803b158015611e5a57600080fd5b505af1158015611e6e573d6000803e3d6000fd5b50505050505050565b60006001600b6000611e876123e8565b73ffffffffffffffffffffffffffffffffffffffff1673ffffffffffffffffffffffffffffffffffffffff16815260200190815260200160002060006101000a81548160ff0219169083151502179055508260056000828254611eea919061317f565b92505081905550611ef96123e8565b73ffffffffffffffffffffffffffffffffffffffff1663e985e9c530600460009054906101000a900473ffffffffffffffffffffffffffffffffffffffff166040518363ffffffff1660e01b8152600401611f55929190612dc0565b60206040518083038186803b158015611f6d57600080fd5b505afa158015611f81573d6000803e3d6000fd5b505050506040513d601f19601f82011682018060405250810190611fa59190612aa4565b61204157611fb16123e8565b73ffffffffffffffffffffffffffffffffffffffff1663a22cb465600460009054906101000a900473ffffffffffffffffffffffffffffffffffffffff1660016040518363ffffffff1660e01b815260040161200e929190612f36565b600060405180830381600087803b15801561202857600080fd5b505af115801561203c573d6000803e3d6000fd5b505050505b61204e86868686866124df565b905095945050505050565b60008054906101000a900473ffffffffffffffffffffffffffffffffffffffff1673ffffffffffffffffffffffffffffffffffffffff16635c975abb6040518163ffffffff1660e01b815260040160206040518083038186803b1580156120bf57600080fd5b505afa1580156120d3573d6000803e3d6000fd5b505050506040513d601f19601f820116820180604052508101906120f79190612aa4565b15612137576040517f08c379a000000000000000000000000000000000000000000000000000000000815260040161212e90613045565b60405180910390fd5b61213f6123e8565b73ffffffffffffffffffffffffffffffffffffffff1661215d6116fe565b73ffffffffffffffffffffffffffffffffffffffff16146121b3576040517f08c379a00000000000000000000000000000000000000000000000000000000081526004016121aa90613085565b60405180910390fd5b8373ffffffffffffffffffffffffffffffffffffffff1663f242432a30878686866040518663ffffffff1660e01b81526004016121f4959493929190612edc565b600060405180830381600087803b15801561220e57600080fd5b505af1158015612222573d6000803e3d6000fd5b5050505060056000815480929190612239906132d1565b91905055505050505050565b600a60009054906101000a900473ffffffffffffffffffffffffffffffffffffffff1681565b6122736123e8565b73ffffffffffffffffffffffffffffffffffffffff16600260009054906101000a900473ffffffffffffffffffffffffffffffffffffffff1673ffffffffffffffffffffffffffffffffffffffff1614612302576040517f08c379a00000000000000000000000000000000000000000000000000000000081526004016122f990613085565b60405180910390fd5b600073ffffffffffffffffffffffffffffffffffffffff168173ffffffffffffffffffffffffffffffffffffffff161415612372576040517f08c379a000000000000000000000000000000000000000000000000000000000815260040161236990613025565b60405180910390fd5b61237b81612404565b50565b60007f01ffc9a7000000000000000000000000000000000000000000000000000000007bffffffffffffffffffffffffffffffffffffffffffffffffffffffff1916827bffffffffffffffffffffffffffffffffffffffffffffffffffffffff1916149050919050565b600033905090565b600063150b7a0260e01b9050949350505050565b6000600160009054906101000a900473ffffffffffffffffffffffffffffffffffffffff16905081600160006101000a81548173ffffffffffffffffffffffffffffffffffffffff021916908373ffffffffffffffffffffffffffffffffffffffff1602179055508173ffffffffffffffffffffffffffffffffffffffff168173ffffffffffffffffffffffffffffffffffffffff167f8be0079c531659141344cd1fd0a4f28419497f9722a3daafe3b4186f6b6457e060405160405180910390a35050565b600063bc197c8160e01b905095945050505050565b600063f23a6e6160e01b905095945050505050565b600061250761250284613111565b6130e0565b90508281526020810184848401111561251f57600080fd5b61252a84828561328f565b509392505050565b60008135905061254181613414565b92915050565b60008151905061255681613414565b92915050565b60008135905061256b8161342b565b92915050565b60008083601f84011261258357600080fd5b8235905067ffffffffffffffff81111561259c57600080fd5b6020830191508360208202830111156125b457600080fd5b9250929050565b6000813590506125ca81613442565b92915050565b6000815190506125df81613442565b92915050565b6000813590506125f481613459565b92915050565b60008083601f84011261260c57600080fd5b8235905067ffffffffffffffff81111561262557600080fd5b60208301915083600182028301111561263d57600080fd5b9250929050565b600082601f83011261265557600080fd5b81356126658482602086016124f4565b91505092915050565b60008135905061267d81613470565b92915050565b60006020828403121561269557600080fd5b60006126a384828501612532565b91505092915050565b6000602082840312156126be57600080fd5b60006126cc84828501612547565b91505092915050565b600080604083850312156126e857600080fd5b60006126f68582860161255c565b92505060206127078582860161266e565b9150509250929050565b60008060008060008060008060a0898b03121561272d57600080fd5b600061273b8b828c01612532565b985050602061274c8b828c01612532565b975050604089013567ffffffffffffffff81111561276957600080fd5b6127758b828c01612571565b9650965050606089013567ffffffffffffffff81111561279457600080fd5b6127a08b828c01612571565b9450945050608089013567ffffffffffffffff8111156127bf57600080fd5b6127cb8b828c016125fa565b92509250509295985092959890939650565b6000806000606084860312156127f257600080fd5b600061280086828701612532565b935050602061281186828701612532565b9250506040612822868287016125bb565b9150509250925092565b60008060006060848603121561284157600080fd5b600061284f86828701612532565b935050602061286086828701612532565b92505060406128718682870161266e565b9150509250925092565b60008060008060006080868803121561289357600080fd5b60006128a188828901612532565b95505060206128b288828901612532565b94505060406128c38882890161266e565b935050606086013567ffffffffffffffff8111156128e057600080fd5b6128ec888289016125fa565b92509250509295509295909350565b6000806000806080858703121561291157600080fd5b600061291f87828801612532565b945050602061293087828801612532565b93505060406129418782880161266e565b925050606085013567ffffffffffffffff81111561295e57600080fd5b61296a87828801612644565b91505092959194509250565b600080600080600060a0868803121561298e57600080fd5b600061299c88828901612532565b95505060206129ad88828901612532565b94505060406129be8882890161266e565b93505060606129cf8882890161266e565b925050608086013567ffffffffffffffff8111156129ec57600080fd5b6129f888828901612644565b9150509295509295909350565b60008060408385031215612a1857600080fd5b6000612a2685828601612532565b9250506020612a378582860161266e565b9150509250929050565b60008060008060808587031215612a5757600080fd5b6000612a6587828801612532565b9450506020612a768782880161266e565b9350506040612a878782880161266e565b9250506060612a988782880161266e565b91505092959194509250565b600060208284031215612ab657600080fd5b6000612ac4848285016125d0565b91505092915050565b600060208284031215612adf57600080fd5b6000612aed848285016125e5565b91505092915050565b600060208284031215612b0857600080fd5b6000612b168482850161266e565b91505092915050565b612b2881613209565b82525050565b6000612b3a838561314c565b93507f07ffffffffffffffffffffffffffffffffffffffffffffffffffffffffffffff831115612b6957600080fd5b602083029250612b7a83858461328f565b82840190509392505050565b612b8f8161322d565b82525050565b612b9e81613239565b82525050565b6000612bb0838561315d565b9350612bbd83858461328f565b612bc683613403565b840190509392505050565b6000612bdc82613141565b612be6818561315d565b9350612bf681856020860161329e565b612bff81613403565b840191505092915050565b6000612c1760268361316e565b91507f4f776e61626c653a206e6577206f776e657220697320746865207a65726f206160008301527f64647265737300000000000000000000000000000000000000000000000000006020830152604082019050919050565b6000612c7d60108361316e565b91507f5061757361626c653a20706175736564000000000000000000000000000000006000830152602082019050919050565b6000612cbd60298361316e565b91507f4552433732313a206f776e657220717565727920666f72206e6f6e657869737460008301527f656e7420746f6b656e00000000000000000000000000000000000000000000006020830152604082019050919050565b6000612d2360208361316e565b91507f4f776e61626c653a2063616c6c6572206973206e6f7420746865206f776e65726000830152602082019050919050565b6000612d6360128361316e565b91507f45544820616d6f756e74206578636565647300000000000000000000000000006000830152602082019050919050565b612d9f81613285565b82525050565b6000602082019050612dba6000830184612b1f565b92915050565b6000604082019050612dd56000830185612b1f565b612de26020830184612b1f565b9392505050565b600060a082019050612dfe600083018b612b1f565b612e0b602083018a612b1f565b8181036040830152612e1e81888a612b2e565b90508181036060830152612e33818688612b2e565b90508181036080830152612e48818486612ba4565b90509998505050505050505050565b6000606082019050612e6c6000830186612b1f565b612e796020830185612b1f565b612e866040830184612d96565b949350505050565b6000608082019050612ea36000830188612b1f565b612eb06020830187612b1f565b612ebd6040830186612d96565b8181036060830152612ed0818486612ba4565b90509695505050505050565b600060a082019050612ef16000830188612b1f565b612efe6020830187612b1f565b612f0b6040830186612d96565b612f186060830185612d96565b8181036080830152612f2a8184612bd1565b90509695505050505050565b6000604082019050612f4b6000830185612b1f565b612f586020830184612b86565b9392505050565b6000604082019050612f746000830185612b1f565b612f816020830184612d96565b9392505050565b6000608082019050612f9d6000830187612b1f565b612faa6020830186612d96565b612fb76040830185612d96565b612fc46060830184612d96565b95945050505050565b6000602082019050612fe26000830184612b86565b92915050565b6000602082019050612ffd6000830184612b95565b92915050565b6000602082019050818103600083015261301d8184612bd1565b905092915050565b6000602082019050818103600083015261303e81612c0a565b9050919050565b6000602082019050818103600083015261305e81612c70565b9050919050565b6000602082019050818103600083015261307e81612cb0565b9050919050565b6000602082019050818103600083015261309e81612d16565b9050919050565b600060208201905081810360008301526130be81612d56565b9050919050565b60006020820190506130da6000830184612d96565b92915050565b6000604051905081810181811067ffffffffffffffff82111715613107576131066133d4565b5b8060405250919050565b600067ffffffffffffffff82111561312c5761312b6133d4565b5b601f19601f8301169050602081019050919050565b600081519050919050565b600082825260208201905092915050565b600082825260208201905092915050565b600082825260208201905092915050565b600061318a82613285565b915061319583613285565b9250827fffffffffffffffffffffffffffffffffffffffffffffffffffffffffffffffff038211156131ca576131c9613376565b5b828201905092915050565b60006131e082613285565b91506131eb83613285565b9250828210156131fe576131fd613376565b5b828203905092915050565b600061321482613265565b9050919050565b600061322682613265565b9050919050565b60008115159050919050565b60007fffffffff0000000000000000000000000000000000000000000000000000000082169050919050565b600073ffffffffffffffffffffffffffffffffffffffff82169050919050565b6000819050919050565b82818337600083830152505050565b60005b838110156132bc5780820151818401526020810190506132a1565b838111156132cb576000848401525b50505050565b60006132dc82613285565b915060008214156132f0576132ef613376565b5b600182039050919050565b6000600282049050600182168061331357607f821691505b60208210811415613327576133266133a5565b5b50919050565b600061333882613285565b91507fffffffffffffffffffffffffffffffffffffffffffffffffffffffffffffffff82141561336b5761336a613376565b5b600182019050919050565b7f4e487b7100000000000000000000000000000000000000000000000000000000600052601160045260246000fd5b7f4e487b7100000000000000000000000000000000000000000000000000000000600052602260045260246000fd5b7f4e487b7100000000000000000000000000000000000000000000000000000000600052604160045260246000fd5b6000601f19601f8301169050919050565b61341d81613209565b811461342857600080fd5b50565b6134348161321b565b811461343f57600080fd5b50565b61344b8161322d565b811461345657600080fd5b50565b61346281613239565b811461346d57600080fd5b50565b61347981613285565b811461348457600080fd5b5056fea2646970667358221220e6413536f7ad5ecbe0a271af16e01cc4ad59398313c7d1c079d148a807d8dc8c64736f6c63430008000033",
  "linkReferences": {},
  "deployedLinkReferences": {}
}