{
  "_format": "hh-sol-artifact-1",
  "contractName": "Admin",
  "sourceName": "contracts/Admin.sol",
  "abi": [
    {
      "anonymous": false,
      "inputs": [
        {
          "indexed": true,
          "internalType": "address",
          "name": "previousOwner",
          "type": "address"
        },
        {
          "indexed": true,
          "internalType": "address",
          "name": "newOwner",
          "type": "address"
        }
      ],
      "name": "OwnershipTransferred",
      "type": "event"
    },
    {
      "anonymous": false,
      "inputs": [
        {
          "indexed": false,
          "internalType": "address",
          "name": "account",
          "type": "address"
        }
      ],
      "name": "Paused",
      "type": "event"
    },
    {
      "anonymous": false,
      "inputs": [
        {
          "indexed": false,
          "internalType": "address",
          "name": "account",
          "type": "address"
        }
      ],
      "name": "Unpaused",
      "type": "event"
    },
    {
      "inputs": [],
      "name": "admin_contract_addr",
      "outputs": [
        {
          "internalType": "address",
          "name": "",
          "type": "address"
        }
      ],
      "stateMutability": "view",
      "type": "function"
    },
    {
      "inputs": [],
      "name": "owner",
      "outputs": [
        {
          "internalType": "address",
          "name": "",
          "type": "address"
        }
      ],
      "stateMutability": "view",
      "type": "function"
    },
    {
      "inputs": [],
      "name": "pause",
      "outputs": [],
      "stateMutability": "nonpayable",
      "type": "function"
    },
    {
      "inputs": [],
      "name": "paused",
      "outputs": [
        {
          "internalType": "bool",
          "name": "",
          "type": "bool"
        }
      ],
      "stateMutability": "view",
      "type": "function"
    },
    {
      "inputs": [],
      "name": "renounceOwnership",
      "outputs": [],
      "stateMutability": "nonpayable",
      "type": "function"
    },
    {
      "inputs": [
        {
          "internalType": "address",
          "name": "newOwner",
          "type": "address"
        }
      ],
      "name": "transferOwnership",
      "outputs": [],
      "stateMutability": "nonpayable",
      "type": "function"
    },
    {
      "inputs": [],
      "name": "unpause",
      "outputs": [],
      "stateMutability": "nonpayable",
      "type": "function"
    }
  ],
  "bytecode": "0x608060405234801561001057600080fd5b5060008060006101000a81548160ff02191690831515021790555061004761003c61004c60201b60201c565b61005460201b60201c565b610119565b600033905090565b60008060019054906101000a900473ffffffffffffffffffffffffffffffffffffffff16905081600060016101000a81548173ffffffffffffffffffffffffffffffffffffffff021916908373ffffffffffffffffffffffffffffffffffffffff1602179055508173ffffffffffffffffffffffffffffffffffffffff168173ffffffffffffffffffffffffffffffffffffffff167f8be0079c531659141344cd1fd0a4f28419497f9722a3daafe3b4186f6b6457e060405160405180910390a35050565b61095c806101286000396000f3fe608060405234801561001057600080fd5b506004361061007d5760003560e01c8063715018a61161005b578063715018a6146100c85780638456cb59146100d25780638da5cb5b146100dc578063f2fde38b146100fa5761007d565b80630ea77214146100825780633f4ba83a146100a05780635c975abb146100aa575b600080fd5b61008a610116565b604051610097919061080a565b60405180910390f35b6100a861011e565b005b6100b26101eb565b6040516100bf9190610825565b60405180910390f35b6100d0610201565b005b6100da610289565b005b6100e4610357565b6040516100f1919061080a565b60405180910390f35b610114600480360381019061010f919061069d565b610380565b005b600030905090565b610126610478565b73ffffffffffffffffffffffffffffffffffffffff16610144610357565b73ffffffffffffffffffffffffffffffffffffffff161461019a576040517f08c379a0000000000000000000000000000000000000000000000000000000008152600401610191906108a0565b60405180910390fd5b6101a26101eb565b6101e1576040517f08c379a00000000000000000000000000000000000000000000000000000000081526004016101d890610840565b60405180910390fd5b6101e9610480565b565b60008060009054906101000a900460ff16905090565b610209610478565b73ffffffffffffffffffffffffffffffffffffffff16610227610357565b73ffffffffffffffffffffffffffffffffffffffff161461027d576040517f08c379a0000000000000000000000000000000000000000000000000000000008152600401610274906108a0565b60405180910390fd5b6102876000610521565b565b610291610478565b73ffffffffffffffffffffffffffffffffffffffff166102af610357565b73ffffffffffffffffffffffffffffffffffffffff1614610305576040517f08c379a00000000000000000000000000000000000000000000000000000000081526004016102fc906108a0565b60405180910390fd5b61030d6101eb565b1561034d576040517f08c379a000000000000000000000000000000000000000000000000000000000815260040161034490610880565b60405180910390fd5b6103556105e6565b565b60008060019054906101000a900473ffffffffffffffffffffffffffffffffffffffff16905090565b610388610478565b73ffffffffffffffffffffffffffffffffffffffff166103a6610357565b73ffffffffffffffffffffffffffffffffffffffff16146103fc576040517f08c379a00000000000000000000000000000000000000000000000000000000081526004016103f3906108a0565b60405180910390fd5b600073ffffffffffffffffffffffffffffffffffffffff168173ffffffffffffffffffffffffffffffffffffffff16141561046c576040517f08c379a000000000000000000000000000000000000000000000000000000000815260040161046390610860565b60405180910390fd5b61047581610521565b50565b600033905090565b6104886101eb565b6104c7576040517f08c379a00000000000000000000000000000000000000000000000000000000081526004016104be90610840565b60405180910390fd5b60008060006101000a81548160ff0219169083151502179055507f5db9ee0a495bf2e6ff9c91a7834c1ba4fdd244a5e8aa4e537bd38aeae4b073aa61050a610478565b604051610517919061080a565b60405180910390a1565b60008060019054906101000a900473ffffffffffffffffffffffffffffffffffffffff16905081600060016101000a81548173ffffffffffffffffffffffffffffffffffffffff021916908373ffffffffffffffffffffffffffffffffffffffff1602179055508173ffffffffffffffffffffffffffffffffffffffff168173ffffffffffffffffffffffffffffffffffffffff167f8be0079c531659141344cd1fd0a4f28419497f9722a3daafe3b4186f6b6457e060405160405180910390a35050565b6105ee6101eb565b1561062e576040517f08c379a000000000000000000000000000000000000000000000000000000000815260040161062590610880565b60405180910390fd5b60016000806101000a81548160ff0219169083151502179055507f62e78cea01bee320cd4e420270b5ea74000d11b0c9f74754ebdbfc544b05a258610671610478565b60405161067e919061080a565b60405180910390a1565b6000813590506106978161090f565b92915050565b6000602082840312156106af57600080fd5b60006106bd84828501610688565b91505092915050565b6106cf816108d1565b82525050565b6106de816108e3565b82525050565b60006106f16014836108c0565b91507f5061757361626c653a206e6f74207061757365640000000000000000000000006000830152602082019050919050565b60006107316026836108c0565b91507f4f776e61626c653a206e6577206f776e657220697320746865207a65726f206160008301527f64647265737300000000000000000000000000000000000000000000000000006020830152604082019050919050565b60006107976010836108c0565b91507f5061757361626c653a20706175736564000000000000000000000000000000006000830152602082019050919050565b60006107d76020836108c0565b91507f4f776e61626c653a2063616c6c6572206973206e6f7420746865206f776e65726000830152602082019050919050565b600060208201905061081f60008301846106c6565b92915050565b600060208201905061083a60008301846106d5565b92915050565b60006020820190508181036000830152610859816106e4565b9050919050565b6000602082019050818103600083015261087981610724565b9050919050565b600060208201905081810360008301526108998161078a565b9050919050565b600060208201905081810360008301526108b9816107ca565b9050919050565b600082825260208201905092915050565b60006108dc826108ef565b9050919050565b60008115159050919050565b600073ffffffffffffffffffffffffffffffffffffffff82169050919050565b610918816108d1565b811461092357600080fd5b5056fea264697066735822122085c554462e757353beda2690473ef9768dd5b625ac8e6d3659b1d56e6b39a9f964736f6c63430008000033",
  "linkReferences": {},
  "deployedLinkReferences": {}
}