{
  "_format": "hh-sol-artifact-1",
  "contractName": "Access",
  "sourceName": "contracts/access/Access.sol",
  "abi": [
    {
      "inputs": [
        {
          "internalType": "address",
          "name": "_owner",
          "type": "address"
        }
      ],
      "stateMutability": "nonpayable",
      "type": "constructor"
    },
    {
      "anonymous": false,
      "inputs": [
        {
          "indexed": true,
          "internalType": "bytes32",
          "name": "role",
          "type": "bytes32"
        },
        {
          "indexed": true,
          "internalType": "bytes32",
          "name": "previousAdminRole",
          "type": "bytes32"
        },
        {
          "indexed": true,
          "internalType": "bytes32",
          "name": "newAdminRole",
          "type": "bytes32"
        }
      ],
      "name": "RoleAdminChanged",
      "type": "event"
    },
    {
      "anonymous": false,
      "inputs": [
        {
          "indexed": true,
          "internalType": "bytes32",
          "name": "role",
          "type": "bytes32"
        },
        {
          "indexed": true,
          "internalType": "address",
          "name": "account",
          "type": "address"
        },
        {
          "indexed": true,
          "internalType": "address",
          "name": "sender",
          "type": "address"
        }
      ],
      "name": "RoleGranted",
      "type": "event"
    },
    {
      "anonymous": false,
      "inputs": [
        {
          "indexed": true,
          "internalType": "bytes32",
          "name": "role",
          "type": "bytes32"
        },
        {
          "indexed": true,
          "internalType": "address",
          "name": "account",
          "type": "address"
        },
        {
          "indexed": true,
          "internalType": "address",
          "name": "sender",
          "type": "address"
        }
      ],
      "name": "RoleRevoked",
      "type": "event"
    },
    {
      "inputs": [],
      "name": "ADMIN_ROLE",
      "outputs": [
        {
          "internalType": "bytes32",
          "name": "",
          "type": "bytes32"
        }
      ],
      "stateMutability": "view",
      "type": "function"
    },
    {
      "inputs": [],
      "name": "CAPTAIN_ROLE",
      "outputs": [
        {
          "internalType": "bytes32",
          "name": "",
          "type": "bytes32"
        }
      ],
      "stateMutability": "view",
      "type": "function"
    },
    {
      "inputs": [],
      "name": "DEFAULT_ADMIN_ROLE",
      "outputs": [
        {
          "internalType": "bytes32",
          "name": "",
          "type": "bytes32"
        }
      ],
      "stateMutability": "view",
      "type": "function"
    },
    {
      "inputs": [],
      "name": "MASTER_ROLE",
      "outputs": [
        {
          "internalType": "bytes32",
          "name": "",
          "type": "bytes32"
        }
      ],
      "stateMutability": "view",
      "type": "function"
    },
    {
      "inputs": [],
      "name": "SCHOLAR_ROLE",
      "outputs": [
        {
          "internalType": "bytes32",
          "name": "",
          "type": "bytes32"
        }
      ],
      "stateMutability": "view",
      "type": "function"
    },
    {
      "inputs": [
        {
          "internalType": "bytes32",
          "name": "role",
          "type": "bytes32"
        }
      ],
      "name": "getRoleAdmin",
      "outputs": [
        {
          "internalType": "bytes32",
          "name": "",
          "type": "bytes32"
        }
      ],
      "stateMutability": "view",
      "type": "function"
    },
    {
      "inputs": [
        {
          "internalType": "bytes32",
          "name": "role",
          "type": "bytes32"
        },
        {
          "internalType": "uint256",
          "name": "index",
          "type": "uint256"
        }
      ],
      "name": "getRoleMember",
      "outputs": [
        {
          "internalType": "address",
          "name": "",
          "type": "address"
        }
      ],
      "stateMutability": "view",
      "type": "function"
    },
    {
      "inputs": [
        {
          "internalType": "bytes32",
          "name": "role",
          "type": "bytes32"
        }
      ],
      "name": "getRoleMemberCount",
      "outputs": [
        {
          "internalType": "uint256",
          "name": "",
          "type": "uint256"
        }
      ],
      "stateMutability": "view",
      "type": "function"
    },
    {
      "inputs": [
        {
          "internalType": "bytes32",
          "name": "role",
          "type": "bytes32"
        },
        {
          "internalType": "address",
          "name": "account",
          "type": "address"
        }
      ],
      "name": "grantRole",
      "outputs": [],
      "stateMutability": "nonpayable",
      "type": "function"
    },
    {
      "inputs": [
        {
          "internalType": "bytes32",
          "name": "role",
          "type": "bytes32"
        },
        {
          "internalType": "address",
          "name": "account",
          "type": "address"
        }
      ],
      "name": "hasRole",
      "outputs": [
        {
          "internalType": "bool",
          "name": "",
          "type": "bool"
        }
      ],
      "stateMutability": "view",
      "type": "function"
    },
    {
      "inputs": [
        {
          "internalType": "bytes32",
          "name": "role",
          "type": "bytes32"
        },
        {
          "internalType": "address",
          "name": "account",
          "type": "address"
        }
      ],
      "name": "renounceRole",
      "outputs": [],
      "stateMutability": "nonpayable",
      "type": "function"
    },
    {
      "inputs": [
        {
          "internalType": "bytes32",
          "name": "role",
          "type": "bytes32"
        },
        {
          "internalType": "address",
          "name": "account",
          "type": "address"
        }
      ],
      "name": "revokeRole",
      "outputs": [],
      "stateMutability": "nonpayable",
      "type": "function"
    },
    {
      "inputs": [
        {
          "internalType": "bytes32",
          "name": "role",
          "type": "bytes32"
        },
        {
          "internalType": "address",
          "name": "account",
          "type": "address"
        }
      ],
      "name": "setupRole",
      "outputs": [],
      "stateMutability": "nonpayable",
      "type": "function"
    },
    {
      "inputs": [
        {
          "internalType": "bytes4",
          "name": "interfaceId",
          "type": "bytes4"
        }
      ],
      "name": "supportsInterface",
      "outputs": [
        {
          "internalType": "bool",
          "name": "",
          "type": "bool"
        }
      ],
      "stateMutability": "view",
      "type": "function"
    }
  ],
  "bytecode": "0x60806040523480156200001157600080fd5b5060405162001a6d38038062001a6d833981810160405281019062000037919062000325565b620000697fa49807205ce4d355092ef5a8a18f56e8913cf4a201fbe287825b095693c21775826200007860201b60201c565b6000600381905550506200039f565b6200008f8282620000c060201b620005af1760201c565b620000bb8160016000858152602001908152602001600020620000d660201b620005bd1790919060201c565b505050565b620000d282826200010e60201b60201c565b5050565b600062000106836000018373ffffffffffffffffffffffffffffffffffffffff1660001b620001ff60201b60201c565b905092915050565b6200012082826200027960201b60201c565b620001fb57600160008084815260200190815260200160002060000160008373ffffffffffffffffffffffffffffffffffffffff1673ffffffffffffffffffffffffffffffffffffffff16815260200190815260200160002060006101000a81548160ff021916908315150217905550620001a0620002e360201b60201c565b73ffffffffffffffffffffffffffffffffffffffff168173ffffffffffffffffffffffffffffffffffffffff16837f2f8788117e7eff1d82e926ec794901d17c78024a50270940304540a733656f0d60405160405180910390a45b5050565b6000620002138383620002eb60201b60201c565b6200026e57826000018290806001815401808255809150506001900390600052602060002001600090919091909150558260000180549050836001016000848152602001908152602001600020819055506001905062000273565b600090505b92915050565b600080600084815260200190815260200160002060000160008373ffffffffffffffffffffffffffffffffffffffff1673ffffffffffffffffffffffffffffffffffffffff16815260200190815260200160002060009054906101000a900460ff16905092915050565b600033905090565b600080836001016000848152602001908152602001600020541415905092915050565b6000815190506200031f8162000385565b92915050565b6000602082840312156200033857600080fd5b600062000348848285016200030e565b91505092915050565b60006200035e8262000365565b9050919050565b600073ffffffffffffffffffffffffffffffffffffffff82169050919050565b620003908162000351565b81146200039c57600080fd5b50565b6116be80620003af6000396000f3fe608060405234801561001057600080fd5b50600436106100ea5760003560e01c80639010d07c1161008c578063ca15c87311610066578063ca15c8731461025f578063d547741f1461028f578063dc224863146102ab578063fa82ac76146102c9576100ea565b80639010d07c146101e157806391d1485414610211578063a217fddf14610241576100ea565b80632f2ff15d116100c85780632f2ff15d1461016d57806336568abe1461018957806375b238fc146101a55780637dc11a21146101c3576100ea565b806301ffc9a7146100ef5780631315bbdc1461011f578063248a9ca31461013d575b600080fd5b61010960048036038101906101049190611109565b6102e5565b6040516101169190611353565b60405180910390f35b61012761035f565b604051610134919061136e565b60405180910390f35b61015760048036038101906101529190611068565b610383565b604051610164919061136e565b60405180910390f35b61018760048036038101906101829190611091565b6103a2565b005b6101a3600480360381019061019e9190611091565b6103d6565b005b6101ad61040a565b6040516101ba919061136e565b60405180910390f35b6101cb61042e565b6040516101d8919061136e565b60405180910390f35b6101fb60048036038101906101f691906110cd565b610452565b6040516102089190611338565b60405180910390f35b61022b60048036038101906102269190611091565b610481565b6040516102389190611353565b60405180910390f35b6102496104eb565b604051610256919061136e565b60405180910390f35b61027960048036038101906102749190611068565b6104f2565b60405161028691906113eb565b60405180910390f35b6102a960048036038101906102a49190611091565b610516565b005b6102b361054a565b6040516102c0919061136e565b60405180910390f35b6102e360048036038101906102de9190611091565b61056e565b005b60007f5a05180f000000000000000000000000000000000000000000000000000000007bffffffffffffffffffffffffffffffffffffffffffffffffffffffff1916827bffffffffffffffffffffffffffffffffffffffffffffffffffffffff191614806103585750610357826105ed565b5b9050919050565b7fd1caa20fe64a17576895d331b6b815baf91df37730e70e788978bc77ac7559b481565b6000806000838152602001908152602001600020600101549050919050565b6103ac8282610667565b6103d181600160008581526020019081526020016000206105bd90919063ffffffff16565b505050565b6103e08282610690565b610405816001600085815260200190815260200160002061071390919063ffffffff16565b505050565b7fa49807205ce4d355092ef5a8a18f56e8913cf4a201fbe287825b095693c2177581565b7f1933ed5067136d70a59e27fe32c1ac4b21188c6c91e749021fe52beca6033da181565b6000610479826001600086815260200190815260200160002061074390919063ffffffff16565b905092915050565b600080600084815260200190815260200160002060000160008373ffffffffffffffffffffffffffffffffffffffff1673ffffffffffffffffffffffffffffffffffffffff16815260200190815260200160002060009054906101000a900460ff16905092915050565b6000801b81565b600061050f6001600084815260200190815260200160002061075d565b9050919050565b6105208282610772565b610545816001600085815260200190815260200160002061071390919063ffffffff16565b505050565b7f8b8c0776df2c2176edf6f82391c35ea4891146d7a976ee36fd07f1a6fb4ead4c81565b7fa49807205ce4d355092ef5a8a18f56e8913cf4a201fbe287825b095693c217756105a08161059b61079b565b6107a3565b6105aa8383610840565b505050565b6105b98282610874565b5050565b60006105e5836000018373ffffffffffffffffffffffffffffffffffffffff1660001b610954565b905092915050565b60007f7965db0b000000000000000000000000000000000000000000000000000000007bffffffffffffffffffffffffffffffffffffffffffffffffffffffff1916827bffffffffffffffffffffffffffffffffffffffffffffffffffffffff19161480610660575061065f826109c4565b5b9050919050565b61067082610383565b6106818161067c61079b565b6107a3565b61068b8383610874565b505050565b61069861079b565b73ffffffffffffffffffffffffffffffffffffffff168173ffffffffffffffffffffffffffffffffffffffff1614610705576040517f08c379a00000000000000000000000000000000000000000000000000000000081526004016106fc906113cb565b60405180910390fd5b61070f8282610a2e565b5050565b600061073b836000018373ffffffffffffffffffffffffffffffffffffffff1660001b610b0f565b905092915050565b60006107528360000183610c95565b60001c905092915050565b600061076b82600001610ce6565b9050919050565b61077b82610383565b61078c8161078761079b565b6107a3565b6107968383610a2e565b505050565b600033905090565b6107ad8282610481565b61083c576107d28173ffffffffffffffffffffffffffffffffffffffff166014610cf7565b6107e08360001c6020610cf7565b6040516020016107f19291906112fe565b6040516020818303038152906040526040517f08c379a00000000000000000000000000000000000000000000000000000000081526004016108339190611389565b60405180910390fd5b5050565b61084a82826105af565b61086f81600160008581526020019081526020016000206105bd90919063ffffffff16565b505050565b61087e8282610481565b61095057600160008084815260200190815260200160002060000160008373ffffffffffffffffffffffffffffffffffffffff1673ffffffffffffffffffffffffffffffffffffffff16815260200190815260200160002060006101000a81548160ff0219169083151502179055506108f561079b565b73ffffffffffffffffffffffffffffffffffffffff168173ffffffffffffffffffffffffffffffffffffffff16837f2f8788117e7eff1d82e926ec794901d17c78024a50270940304540a733656f0d60405160405180910390a45b5050565b60006109608383610ff1565b6109b95782600001829080600181540180825580915050600190039060005260206000200160009091909190915055826000018054905083600101600084815260200190815260200160002081905550600190506109be565b600090505b92915050565b60007f01ffc9a7000000000000000000000000000000000000000000000000000000007bffffffffffffffffffffffffffffffffffffffffffffffffffffffff1916827bffffffffffffffffffffffffffffffffffffffffffffffffffffffff1916149050919050565b610a388282610481565b15610b0b57600080600084815260200190815260200160002060000160008373ffffffffffffffffffffffffffffffffffffffff1673ffffffffffffffffffffffffffffffffffffffff16815260200190815260200160002060006101000a81548160ff021916908315150217905550610ab061079b565b73ffffffffffffffffffffffffffffffffffffffff168173ffffffffffffffffffffffffffffffffffffffff16837ff6391f5c32d9c69d2a47ea670b442974b53935d1edc7fd64eb21e047a839171b60405160405180910390a45b5050565b60008083600101600084815260200190815260200160002054905060008114610c89576000600182610b4191906114dd565b9050600060018660000180549050610b5991906114dd565b9050818114610c14576000866000018281548110610ba0577f4e487b7100000000000000000000000000000000000000000000000000000000600052603260045260246000fd5b9060005260206000200154905080876000018481548110610bea577f4e487b7100000000000000000000000000000000000000000000000000000000600052603260045260246000fd5b90600052602060002001819055508387600101600083815260200190815260200160002081905550505b85600001805480610c4e577f4e487b7100000000000000000000000000000000000000000000000000000000600052603160045260246000fd5b600190038181906000526020600020016000905590558560010160008681526020019081526020016000206000905560019350505050610c8f565b60009150505b92915050565b6000826000018281548110610cd3577f4e487b7100000000000000000000000000000000000000000000000000000000600052603260045260246000fd5b9060005260206000200154905092915050565b600081600001805490509050919050565b606060006002836002610d0a9190611483565b610d14919061142d565b67ffffffffffffffff811115610d53577f4e487b7100000000000000000000000000000000000000000000000000000000600052604160045260246000fd5b6040519080825280601f01601f191660200182016040528015610d855781602001600182028036833780820191505090505b5090507f300000000000000000000000000000000000000000000000000000000000000081600081518110610de3577f4e487b7100000000000000000000000000000000000000000000000000000000600052603260045260246000fd5b60200101907effffffffffffffffffffffffffffffffffffffffffffffffffffffffffffff1916908160001a9053507f780000000000000000000000000000000000000000000000000000000000000081600181518110610e6d577f4e487b7100000000000000000000000000000000000000000000000000000000600052603260045260246000fd5b60200101907effffffffffffffffffffffffffffffffffffffffffffffffffffffffffffff1916908160001a90535060006001846002610ead9190611483565b610eb7919061142d565b90505b6001811115610fa3577f3031323334353637383961626364656600000000000000000000000000000000600f861660108110610f1f577f4e487b7100000000000000000000000000000000000000000000000000000000600052603260045260246000fd5b1a60f81b828281518110610f5c577f4e487b7100000000000000000000000000000000000000000000000000000000600052603260045260246000fd5b60200101907effffffffffffffffffffffffffffffffffffffffffffffffffffffffffffff1916908160001a905350600485901c945080610f9c906115c2565b9050610eba565b5060008414610fe7576040517f08c379a0000000000000000000000000000000000000000000000000000000008152600401610fde906113ab565b60405180910390fd5b8091505092915050565b600080836001016000848152602001908152602001600020541415905092915050565b6000813590506110238161162c565b92915050565b60008135905061103881611643565b92915050565b60008135905061104d8161165a565b92915050565b60008135905061106281611671565b92915050565b60006020828403121561107a57600080fd5b600061108884828501611029565b91505092915050565b600080604083850312156110a457600080fd5b60006110b285828601611029565b92505060206110c385828601611014565b9150509250929050565b600080604083850312156110e057600080fd5b60006110ee85828601611029565b92505060206110ff85828601611053565b9150509250929050565b60006020828403121561111b57600080fd5b60006111298482850161103e565b91505092915050565b61113b81611511565b82525050565b61114a81611523565b82525050565b6111598161152f565b82525050565b600061116a82611406565b6111748185611411565b935061118481856020860161158f565b61118d8161161b565b840191505092915050565b60006111a382611406565b6111ad8185611422565b93506111bd81856020860161158f565b80840191505092915050565b60006111d6602083611411565b91507f537472696e67733a20686578206c656e67746820696e73756666696369656e746000830152602082019050919050565b6000611216601783611422565b91507f416363657373436f6e74726f6c3a206163636f756e74200000000000000000006000830152601782019050919050565b6000611256601183611422565b91507f206973206d697373696e6720726f6c65200000000000000000000000000000006000830152601182019050919050565b6000611296602f83611411565b91507f416363657373436f6e74726f6c3a2063616e206f6e6c792072656e6f756e636560008301527f20726f6c657320666f722073656c6600000000000000000000000000000000006020830152604082019050919050565b6112f881611585565b82525050565b600061130982611209565b91506113158285611198565b915061132082611249565b915061132c8284611198565b91508190509392505050565b600060208201905061134d6000830184611132565b92915050565b60006020820190506113686000830184611141565b92915050565b60006020820190506113836000830184611150565b92915050565b600060208201905081810360008301526113a3818461115f565b905092915050565b600060208201905081810360008301526113c4816111c9565b9050919050565b600060208201905081810360008301526113e481611289565b9050919050565b600060208201905061140060008301846112ef565b92915050565b600081519050919050565b600082825260208201905092915050565b600081905092915050565b600061143882611585565b915061144383611585565b9250827fffffffffffffffffffffffffffffffffffffffffffffffffffffffffffffffff03821115611478576114776115ec565b5b828201905092915050565b600061148e82611585565b915061149983611585565b9250817fffffffffffffffffffffffffffffffffffffffffffffffffffffffffffffffff04831182151516156114d2576114d16115ec565b5b828202905092915050565b60006114e882611585565b91506114f383611585565b925082821015611506576115056115ec565b5b828203905092915050565b600061151c82611565565b9050919050565b60008115159050919050565b6000819050919050565b60007fffffffff0000000000000000000000000000000000000000000000000000000082169050919050565b600073ffffffffffffffffffffffffffffffffffffffff82169050919050565b6000819050919050565b60005b838110156115ad578082015181840152602081019050611592565b838111156115bc576000848401525b50505050565b60006115cd82611585565b915060008214156115e1576115e06115ec565b5b600182039050919050565b7f4e487b7100000000000000000000000000000000000000000000000000000000600052601160045260246000fd5b6000601f19601f8301169050919050565b61163581611511565b811461164057600080fd5b50565b61164c8161152f565b811461165757600080fd5b50565b61166381611539565b811461166e57600080fd5b50565b61167a81611585565b811461168557600080fd5b5056fea2646970667358221220300892e48c4fbadcb0bfd21944c6984a8ba1aec90f61ab87c02d6874af4fda3464736f6c63430008000033",
  "linkReferences": {},
  "deployedLinkReferences": {}
}