{
  "_format": "hh-sol-artifact-1",
  "contractName": "RentVault",
  "sourceName": "contracts/RentVault.sol",
  "abi": [
    {
      "anonymous": false,
      "inputs": [
        {
          "indexed": true,
          "internalType": "uint256",
          "name": "itemId",
          "type": "uint256"
        },
        {
          "indexed": true,
          "internalType": "address",
          "name": "nftContract",
          "type": "address"
        },
        {
          "indexed": true,
          "internalType": "uint256",
          "name": "tokenId",
          "type": "uint256"
        },
        {
          "indexed": false,
          "internalType": "address",
          "name": "seller",
          "type": "address"
        },
        {
          "indexed": false,
          "internalType": "address",
          "name": "owner",
          "type": "address"
        },
        {
          "indexed": false,
          "internalType": "uint256",
          "name": "price",
          "type": "uint256"
        },
        {
          "indexed": false,
          "internalType": "bool",
          "name": "sold",
          "type": "bool"
        },
        {
          "indexed": false,
          "internalType": "bool",
          "name": "_isRent",
          "type": "bool"
        }
      ],
      "name": "MarketItemCreated",
      "type": "event"
    },
    {
      "inputs": [
        {
          "internalType": "uint256",
          "name": "itemId",
          "type": "uint256"
        }
      ],
      "name": "RemoveItemFromVault",
      "outputs": [
        {
          "internalType": "bool",
          "name": "",
          "type": "bool"
        }
      ],
      "stateMutability": "nonpayable",
      "type": "function"
    },
    {
      "inputs": [
        {
          "internalType": "uint256",
          "name": "itemId",
          "type": "uint256"
        }
      ],
      "name": "createMarketRent",
      "outputs": [],
      "stateMutability": "payable",
      "type": "function"
    },
    {
      "inputs": [
        {
          "internalType": "address",
          "name": "nftContract",
          "type": "address"
        },
        {
          "internalType": "uint256",
          "name": "tokenId",
          "type": "uint256"
        },
        {
          "internalType": "uint256",
          "name": "price",
          "type": "uint256"
        },
        {
          "internalType": "uint256",
          "name": "_seconds",
          "type": "uint256"
        }
      ],
      "name": "createMarketRentItem",
      "outputs": [],
      "stateMutability": "payable",
      "type": "function"
    },
    {
      "inputs": [],
      "name": "fetchMyNFTs",
      "outputs": [
        {
          "components": [
            {
              "internalType": "uint256",
              "name": "itemId",
              "type": "uint256"
            },
            {
              "internalType": "address",
              "name": "nftContract",
              "type": "address"
            },
            {
              "internalType": "uint256",
              "name": "tokenId",
              "type": "uint256"
            },
            {
              "internalType": "address payable",
              "name": "seller",
              "type": "address"
            },
            {
              "internalType": "address payable",
              "name": "owner",
              "type": "address"
            },
            {
              "internalType": "uint256",
              "name": "price",
              "type": "uint256"
            },
            {
              "internalType": "bool",
              "name": "sold",
              "type": "bool"
            },
            {
              "internalType": "bool",
              "name": "_isRent",
              "type": "bool"
            }
          ],
          "internalType": "struct RentVault.MarketItem[]",
          "name": "",
          "type": "tuple[]"
        }
      ],
      "stateMutability": "view",
      "type": "function"
    },
    {
      "inputs": [],
      "name": "fetchVaultItems",
      "outputs": [
        {
          "components": [
            {
              "internalType": "uint256",
              "name": "itemId",
              "type": "uint256"
            },
            {
              "internalType": "address",
              "name": "nftContract",
              "type": "address"
            },
            {
              "internalType": "uint256",
              "name": "tokenId",
              "type": "uint256"
            },
            {
              "internalType": "address payable",
              "name": "seller",
              "type": "address"
            },
            {
              "internalType": "address payable",
              "name": "owner",
              "type": "address"
            },
            {
              "internalType": "uint256",
              "name": "price",
              "type": "uint256"
            },
            {
              "internalType": "bool",
              "name": "sold",
              "type": "bool"
            },
            {
              "internalType": "bool",
              "name": "_isRent",
              "type": "bool"
            }
          ],
          "internalType": "struct RentVault.MarketItem[]",
          "name": "",
          "type": "tuple[]"
        }
      ],
      "stateMutability": "view",
      "type": "function"
    },
    {
      "inputs": [
        {
          "internalType": "uint256",
          "name": "itemId",
          "type": "uint256"
        }
      ],
      "name": "getBackRentedItem",
      "outputs": [],
      "stateMutability": "nonpayable",
      "type": "function"
    },
    {
      "inputs": [
        {
          "internalType": "uint256",
          "name": "itemId",
          "type": "uint256"
        }
      ],
      "name": "getPrice",
      "outputs": [
        {
          "internalType": "uint256",
          "name": "",
          "type": "uint256"
        }
      ],
      "stateMutability": "view",
      "type": "function"
    },
    {
      "inputs": [],
      "name": "initialize",
      "outputs": [],
      "stateMutability": "nonpayable",
      "type": "function"
    },
    {
      "inputs": [
        {
          "internalType": "uint256",
          "name": "itemId",
          "type": "uint256"
        }
      ],
      "name": "play",
      "outputs": [
        {
          "internalType": "bool",
          "name": "",
          "type": "bool"
        }
      ],
      "stateMutability": "nonpayable",
      "type": "function"
    },
    {
      "inputs": [
        {
          "internalType": "uint256",
          "name": "itemId",
          "type": "uint256"
        }
      ],
      "name": "updateRentCheck",
      "outputs": [
        {
          "internalType": "bool",
          "name": "",
          "type": "bool"
        }
      ],
      "stateMutability": "nonpayable",
      "type": "function"
    },
    {
      "inputs": [
        {
          "internalType": "uint256",
          "name": "itemId",
          "type": "uint256"
        },
        {
          "internalType": "uint256",
          "name": "_seconds",
          "type": "uint256"
        }
      ],
      "name": "updateRentTime",
      "outputs": [],
      "stateMutability": "nonpayable",
      "type": "function"
    }
  ],
  "bytecode": "0x608060405234801561001057600080fd5b50612089806100206000396000f3fe60806040526004361061009c5760003560e01c80636898f82b116100645780636898f82b1461018d5780638129fc1c146101ca5780639e78db28146101e1578063c87e217e146101fd578063e0323f7f14610226578063e75722301461024f5761009c565b80631494ff3e146100a1578063202e3740146100cc5780632ae2a8b0146100f757806339c462d4146101345780633a8b9cd414610171575b600080fd5b3480156100ad57600080fd5b506100b661028c565b6040516100c39190611cad565b60405180910390f35b3480156100d857600080fd5b506100e16105be565b6040516100ee9190611cad565b60405180910390f35b34801561010357600080fd5b5061011e6004803603810190610119919061173e565b610974565b60405161012b9190611ccf565b60405180910390f35b34801561014057600080fd5b5061015b6004803603810190610156919061173e565b610a6b565b6040516101689190611ccf565b60405180910390f35b61018b600480360381019061018691906116db565b610c92565b005b34801561019957600080fd5b506101b460048036038101906101af919061173e565b611107565b6040516101c19190611ccf565b60405180910390f35b3480156101d657600080fd5b506101df611205565b005b6101fb60048036038101906101f6919061173e565b61131f565b005b34801561020957600080fd5b50610224600480360381019061021f9190611767565b6114ea565b005b34801561023257600080fd5b5061024d6004803603810190610248919061173e565b6115b4565b005b34801561025b57600080fd5b506102766004803603810190610271919061173e565b6115da565b6040516102839190611e0a565b60405180910390f35b6060600061029a60346115fa565b905060006102a860356115fa565b6102b260346115fa565b6102bc9190611f1f565b90506000808267ffffffffffffffff811115610301577f4e487b7100000000000000000000000000000000000000000000000000000000600052604160045260246000fd5b60405190808252806020026020018201604052801561033a57816020015b610327611626565b81526020019060019003908161031f5790505b50905060005b848110156105b357600073ffffffffffffffffffffffffffffffffffffffff16603860006001846103719190611e6f565b815260200190815260200160002060040160009054906101000a900473ffffffffffffffffffffffffffffffffffffffff1673ffffffffffffffffffffffffffffffffffffffff1614156105a05760006001826103ce9190611e6f565b905060006038600083815260200190815260200160002090508060405180610100016040529081600082015481526020016001820160009054906101000a900473ffffffffffffffffffffffffffffffffffffffff1673ffffffffffffffffffffffffffffffffffffffff1673ffffffffffffffffffffffffffffffffffffffff168152602001600282015481526020016003820160009054906101000a900473ffffffffffffffffffffffffffffffffffffffff1673ffffffffffffffffffffffffffffffffffffffff1673ffffffffffffffffffffffffffffffffffffffff1681526020016004820160009054906101000a900473ffffffffffffffffffffffffffffffffffffffff1673ffffffffffffffffffffffffffffffffffffffff1673ffffffffffffffffffffffffffffffffffffffff168152602001600582015481526020016006820160009054906101000a900460ff161515151581526020016006820160019054906101000a900460ff161515151581525050848681518110610583577f4e487b7100000000000000000000000000000000000000000000000000000000600052603260045260246000fd5b602002602001018190525060018561059b9190611e6f565b945050505b80806105ab90611fad565b915050610340565b508094505050505090565b606060006105cc60346115fa565b905060008060005b83811015610675573373ffffffffffffffffffffffffffffffffffffffff16603860006001846106049190611e6f565b815260200190815260200160002060040160009054906101000a900473ffffffffffffffffffffffffffffffffffffffff1673ffffffffffffffffffffffffffffffffffffffff1614156106625760018361065f9190611e6f565b92505b808061066d90611fad565b9150506105d4565b5060008267ffffffffffffffff8111156106b8577f4e487b7100000000000000000000000000000000000000000000000000000000600052604160045260246000fd5b6040519080825280602002602001820160405280156106f157816020015b6106de611626565b8152602001906001900390816106d65790505b50905060005b84811015610969573373ffffffffffffffffffffffffffffffffffffffff16603860006001846107279190611e6f565b815260200190815260200160002060040160009054906101000a900473ffffffffffffffffffffffffffffffffffffffff1673ffffffffffffffffffffffffffffffffffffffff1614156109565760006001826107849190611e6f565b905060006038600083815260200190815260200160002090508060405180610100016040529081600082015481526020016001820160009054906101000a900473ffffffffffffffffffffffffffffffffffffffff1673ffffffffffffffffffffffffffffffffffffffff1673ffffffffffffffffffffffffffffffffffffffff168152602001600282015481526020016003820160009054906101000a900473ffffffffffffffffffffffffffffffffffffffff1673ffffffffffffffffffffffffffffffffffffffff1673ffffffffffffffffffffffffffffffffffffffff1681526020016004820160009054906101000a900473ffffffffffffffffffffffffffffffffffffffff1673ffffffffffffffffffffffffffffffffffffffff1673ffffffffffffffffffffffffffffffffffffffff168152602001600582015481526020016006820160009054906101000a900460ff161515151581526020016006820160019054906101000a900460ff161515151581525050848681518110610939577f4e487b7100000000000000000000000000000000000000000000000000000000600052603260045260246000fd5b60200260200101819052506001856109519190611e6f565b945050505b808061096190611fad565b9150506106f7565b508094505050505090565b600080603960008481526020019081526020016000206002015460396000858152602001908152602001600020600101546109af9190611e6f565b90506001816109be9190611ec5565b9050428111156109d2576001915050610a66565b60006039600085815260200190815260200160002060000160006101000a81548173ffffffffffffffffffffffffffffffffffffffff021916908373ffffffffffffffffffffffffffffffffffffffff160217905550600060396000858152602001908152602001600020600201819055506000603960008581526020019081526020016000206001018190555060009150505b919050565b6000610a7682610974565b50600073ffffffffffffffffffffffffffffffffffffffff166039600084815260200190815260200160002060000160009054906101000a900473ffffffffffffffffffffffffffffffffffffffff1673ffffffffffffffffffffffffffffffffffffffff1614610b1c576040517f08c379a0000000000000000000000000000000000000000000000000000000008152600401610b1390611cea565b60405180910390fd5b610b24611608565b73ffffffffffffffffffffffffffffffffffffffff166038600084815260200190815260200160002060030160009054906101000a900473ffffffffffffffffffffffffffffffffffffffff1673ffffffffffffffffffffffffffffffffffffffff1614610bc7576040517f08c379a0000000000000000000000000000000000000000000000000000000008152600401610bbe90611d2a565b60405180910390fd5b6038600083815260200190815260200160002060010160009054906101000a900473ffffffffffffffffffffffffffffffffffffffff1673ffffffffffffffffffffffffffffffffffffffff166323b872dd30610c22611608565b60386000878152602001908152602001600020600201546040518463ffffffff1660e01b8152600401610c5793929190611c23565b600060405180830381600087803b158015610c7157600080fd5b505af1158015610c85573d6000803e3d6000fd5b5050505060019050919050565b60026001541415610cd8576040517f08c379a0000000000000000000000000000000000000000000000000000000008152600401610ccf90611dca565b60405180910390fd5b600260018190555060001515603760008673ffffffffffffffffffffffffffffffffffffffff1673ffffffffffffffffffffffffffffffffffffffff168152602001908152602001600020600085815260200190815260200160002060009054906101000a900460ff16151514610d84576040517f08c379a0000000000000000000000000000000000000000000000000000000008152600401610d7b90611d8a565b60405180910390fd5b60008211610dc7576040517f08c379a0000000000000000000000000000000000000000000000000000000008152600401610dbe90611dea565b60405180910390fd5b6001603760008673ffffffffffffffffffffffffffffffffffffffff1673ffffffffffffffffffffffffffffffffffffffff168152602001908152602001600020600085815260200190815260200160002060006101000a81548160ff021916908315150217905550610e3a6034611610565b6000610e4660346115fa565b90508160396000838152602001908152602001600020600101819055506040518061010001604052808281526020018673ffffffffffffffffffffffffffffffffffffffff1681526020018581526020013373ffffffffffffffffffffffffffffffffffffffff168152602001600073ffffffffffffffffffffffffffffffffffffffff16815260200184815260200160001515815260200160011515815250603860008381526020019081526020016000206000820151816000015560208201518160010160006101000a81548173ffffffffffffffffffffffffffffffffffffffff021916908373ffffffffffffffffffffffffffffffffffffffff1602179055506040820151816002015560608201518160030160006101000a81548173ffffffffffffffffffffffffffffffffffffffff021916908373ffffffffffffffffffffffffffffffffffffffff16021790555060808201518160040160006101000a81548173ffffffffffffffffffffffffffffffffffffffff021916908373ffffffffffffffffffffffffffffffffffffffff16021790555060a0820151816005015560c08201518160060160006101000a81548160ff02191690831515021790555060e08201518160060160016101000a81548160ff0219169083151502179055509050508473ffffffffffffffffffffffffffffffffffffffff166323b872dd3330876040518463ffffffff1660e01b815260040161106c93929190611c23565b600060405180830381600087803b15801561108657600080fd5b505af115801561109a573d6000803e3d6000fd5b50505050838573ffffffffffffffffffffffffffffffffffffffff16827fc99151f4453170a67bc7441775fde1a3bc3220c06645df1121e703aab5e7da5d33600088600060016040516110f1959493929190611c5a565b60405180910390a4506001808190555050505050565b60006001151561111683610974565b151514611158576040517f08c379a000000000000000000000000000000000000000000000000000000000815260040161114f90611d4a565b60405180910390fd5b3373ffffffffffffffffffffffffffffffffffffffff166039600084815260200190815260200160002060000160009054906101000a900473ffffffffffffffffffffffffffffffffffffffff1673ffffffffffffffffffffffffffffffffffffffff16146111fc576040517f08c379a00000000000000000000000000000000000000000000000000000000081526004016111f390611d0a565b60405180910390fd5b60019050919050565b600060019054906101000a900460ff168061122b575060008054906101000a900460ff16155b61126a576040517f08c379a000000000000000000000000000000000000000000000000000000000815260040161126190611d6a565b60405180910390fd5b60008060019054906101000a900460ff1615905080156112ba576001600060016101000a81548160ff02191690831515021790555060016000806101000a81548160ff0219169083151502179055505b33603660006101000a81548173ffffffffffffffffffffffffffffffffffffffff021916908373ffffffffffffffffffffffffffffffffffffffff160217905550801561131c5760008060016101000a81548160ff0219169083151502179055505b50565b60026001541415611365576040517f08c379a000000000000000000000000000000000000000000000000000000000815260040161135c90611dca565b60405180910390fd5b6002600181905550600080603860008481526020019081526020016000206002015490506000603860008581526020019081526020016000206005015492508234146113e6576040517f08c379a00000000000000000000000000000000000000000000000000000000081526004016113dd90611daa565b60405180910390fd5b336039600086815260200190815260200160002060000160006101000a81548173ffffffffffffffffffffffffffffffffffffffff021916908373ffffffffffffffffffffffffffffffffffffffff1602179055504260396000868152602001908152602001600020600201819055506038600085815260200190815260200160002060030160009054906101000a900473ffffffffffffffffffffffffffffffffffffffff1673ffffffffffffffffffffffffffffffffffffffff166108fc349081150290604051600060405180830381858888f193505050501580156114d2573d6000803e3d6000fd5b506114dd6035611610565b5050506001808190555050565b6114f2611608565b73ffffffffffffffffffffffffffffffffffffffff166038600084815260200190815260200160002060030160009054906101000a900473ffffffffffffffffffffffffffffffffffffffff1673ffffffffffffffffffffffffffffffffffffffff1614611595576040517f08c379a000000000000000000000000000000000000000000000000000000000815260040161158c90611d2a565b60405180910390fd5b8060396000848152602001908152602001600020600101819055505050565b600015156115c182610974565b1515146115cd57600080fd5b6115d681610974565b5050565b600060386000838152602001908152602001600020600501549050919050565b600081600001549050919050565b600033905090565b6001816000016000828254019250508190555050565b60405180610100016040528060008152602001600073ffffffffffffffffffffffffffffffffffffffff16815260200160008152602001600073ffffffffffffffffffffffffffffffffffffffff168152602001600073ffffffffffffffffffffffffffffffffffffffff168152602001600081526020016000151581526020016000151581525090565b6000813590506116c081612025565b92915050565b6000813590506116d58161203c565b92915050565b600080600080608085870312156116f157600080fd5b60006116ff878288016116b1565b9450506020611710878288016116c6565b9350506040611721878288016116c6565b9250506060611732878288016116c6565b91505092959194509250565b60006020828403121561175057600080fd5b600061175e848285016116c6565b91505092915050565b6000806040838503121561177a57600080fd5b6000611788858286016116c6565b9250506020611799858286016116c6565b9150509250929050565b60006117af8383611b63565b6101008301905092915050565b6117c581611f65565b82525050565b6117d481611f53565b82525050565b6117e381611f53565b82525050565b60006117f482611e35565b6117fe8185611e4d565b935061180983611e25565b8060005b8381101561183a57815161182188826117a3565b975061182c83611e40565b92505060018101905061180d565b5085935050505092915050565b61185081611f77565b82525050565b61185f81611f77565b82525050565b6000611872602383611e5e565b91507f52656d6f76652063616e206f636375722061667465722072656e74206578706960008301527f72657300000000000000000000000000000000000000000000000000000000006020830152604082019050919050565b60006118d8602d83611e5e565b91507f61646472657373203a3a20596f7520617265206e6f742074686520417574686f60008301527f72697a656420746f20706c6179000000000000000000000000000000000000006020830152604082019050919050565b600061193e601583611e5e565b91507f596f7520617265206e6f7420746865206f776e657200000000000000000000006000830152602082019050919050565b600061197e603183611e5e565b91507f7570646174652066756e63203a3a20596f7520617265206e6f7420746865204160008301527f7574686f72697a656420746f20706c61790000000000000000000000000000006020830152604082019050919050565b60006119e4602e83611e5e565b91507f496e697469616c697a61626c653a20636f6e747261637420697320616c72656160008301527f647920696e697469616c697a65640000000000000000000000000000000000006020830152604082019050919050565b6000611a4a601f83611e5e565b91507f4e465420616c7265616479204578697374206f6e20746865206d61726b6574006000830152602082019050919050565b6000611a8a604083611e5e565b91507f506c65617365207375626d6974207468652061736b696e67207072696365206960008301527f6e206f7264657220746f20636f6d706c657465207468652070757263686173656020830152604082019050919050565b6000611af0601f83611e5e565b91507f5265656e7472616e637947756172643a207265656e7472616e742063616c6c006000830152602082019050919050565b6000611b30601c83611e5e565b91507f5072696365206d757374206265206174206c65617374203120776569000000006000830152602082019050919050565b61010082016000820151611b7a6000850182611c05565b506020820151611b8d60208501826117cb565b506040820151611ba06040850182611c05565b506060820151611bb360608501826117bc565b506080820151611bc660808501826117bc565b5060a0820151611bd960a0850182611c05565b5060c0820151611bec60c0850182611847565b5060e0820151611bff60e0850182611847565b50505050565b611c0e81611fa3565b82525050565b611c1d81611fa3565b82525050565b6000606082019050611c3860008301866117da565b611c4560208301856117da565b611c526040830184611c14565b949350505050565b600060a082019050611c6f60008301886117da565b611c7c60208301876117da565b611c896040830186611c14565b611c966060830185611856565b611ca36080830184611856565b9695505050505050565b60006020820190508181036000830152611cc781846117e9565b905092915050565b6000602082019050611ce46000830184611856565b92915050565b60006020820190508181036000830152611d0381611865565b9050919050565b60006020820190508181036000830152611d23816118cb565b9050919050565b60006020820190508181036000830152611d4381611931565b9050919050565b60006020820190508181036000830152611d6381611971565b9050919050565b60006020820190508181036000830152611d83816119d7565b9050919050565b60006020820190508181036000830152611da381611a3d565b9050919050565b60006020820190508181036000830152611dc381611a7d565b9050919050565b60006020820190508181036000830152611de381611ae3565b9050919050565b60006020820190508181036000830152611e0381611b23565b9050919050565b6000602082019050611e1f6000830184611c14565b92915050565b6000819050602082019050919050565b600081519050919050565b6000602082019050919050565b600082825260208201905092915050565b600082825260208201905092915050565b6000611e7a82611fa3565b9150611e8583611fa3565b9250827fffffffffffffffffffffffffffffffffffffffffffffffffffffffffffffffff03821115611eba57611eb9611ff6565b5b828201905092915050565b6000611ed082611fa3565b9150611edb83611fa3565b9250817fffffffffffffffffffffffffffffffffffffffffffffffffffffffffffffffff0483118215151615611f1457611f13611ff6565b5b828202905092915050565b6000611f2a82611fa3565b9150611f3583611fa3565b925082821015611f4857611f47611ff6565b5b828203905092915050565b6000611f5e82611f83565b9050919050565b6000611f7082611f83565b9050919050565b60008115159050919050565b600073ffffffffffffffffffffffffffffffffffffffff82169050919050565b6000819050919050565b6000611fb882611fa3565b91507fffffffffffffffffffffffffffffffffffffffffffffffffffffffffffffffff821415611feb57611fea611ff6565b5b600182019050919050565b7f4e487b7100000000000000000000000000000000000000000000000000000000600052601160045260246000fd5b61202e81611f53565b811461203957600080fd5b50565b61204581611fa3565b811461205057600080fd5b5056fea26469706673582212200725895a15d34fd81f105e34c516b0cdf375d7172725523781cdff700185c01a64736f6c63430008000033",
  "linkReferences": {},
  "deployedLinkReferences": {}
}