{
  "_format": "hh-sol-artifact-1",
  "contractName": "Wallet",
  "sourceName": "contracts/Wallet.sol",
  "abi": [
    {
      "inputs": [
        {
          "internalType": "address",
          "name": "_iAccountDeployer",
          "type": "address"
        },
        {
          "internalType": "address",
          "name": "_badgeNFT",
          "type": "address"
        }
      ],
      "stateMutability": "nonpayable",
      "type": "constructor"
    },
    {
      "anonymous": false,
      "inputs": [
        {
          "indexed": true,
          "internalType": "address",
          "name": "previousOwner",
          "type": "address"
        },
        {
          "indexed": true,
          "internalType": "address",
          "name": "newOwner",
          "type": "address"
        }
      ],
      "name": "OwnershipTransferred",
      "type": "event"
    },
    {
      "anonymous": false,
      "inputs": [
        {
          "indexed": false,
          "internalType": "address",
          "name": "account",
          "type": "address"
        }
      ],
      "name": "Paused",
      "type": "event"
    },
    {
      "anonymous": false,
      "inputs": [
        {
          "indexed": false,
          "internalType": "address",
          "name": "account",
          "type": "address"
        }
      ],
      "name": "Unpaused",
      "type": "event"
    },
    {
      "inputs": [
        {
          "internalType": "address",
          "name": "",
          "type": "address"
        },
        {
          "internalType": "uint256",
          "name": "",
          "type": "uint256"
        }
      ],
      "name": "NFTexist",
      "outputs": [
        {
          "internalType": "bool",
          "name": "",
          "type": "bool"
        }
      ],
      "stateMutability": "view",
      "type": "function"
    },
    {
      "inputs": [],
      "name": "admin_contract_addr",
      "outputs": [
        {
          "internalType": "address",
          "name": "",
          "type": "address"
        }
      ],
      "stateMutability": "view",
      "type": "function"
    },
    {
      "inputs": [
        {
          "internalType": "address",
          "name": "",
          "type": "address"
        }
      ],
      "name": "balance",
      "outputs": [
        {
          "internalType": "uint256",
          "name": "",
          "type": "uint256"
        }
      ],
      "stateMutability": "view",
      "type": "function"
    },
    {
      "inputs": [
        {
          "internalType": "address",
          "name": "vault_",
          "type": "address"
        },
        {
          "internalType": "address",
          "name": "game",
          "type": "address"
        },
        {
          "internalType": "uint8",
          "name": "_nftType",
          "type": "uint8"
        }
      ],
      "name": "createAccount",
      "outputs": [
        {
          "internalType": "address",
          "name": "",
          "type": "address"
        }
      ],
      "stateMutability": "nonpayable",
      "type": "function"
    },
    {
      "inputs": [
        {
          "internalType": "address",
          "name": "game",
          "type": "address"
        }
      ],
      "name": "getGameSubAccounts",
      "outputs": [
        {
          "internalType": "address[]",
          "name": "",
          "type": "address[]"
        }
      ],
      "stateMutability": "view",
      "type": "function"
    },
    {
      "inputs": [],
      "name": "getUserAccounts",
      "outputs": [
        {
          "internalType": "address[]",
          "name": "",
          "type": "address[]"
        }
      ],
      "stateMutability": "view",
      "type": "function"
    },
    {
      "inputs": [
        {
          "internalType": "uint256",
          "name": "",
          "type": "uint256"
        }
      ],
      "name": "idToAccount",
      "outputs": [
        {
          "internalType": "address",
          "name": "",
          "type": "address"
        }
      ],
      "stateMutability": "view",
      "type": "function"
    },
    {
      "inputs": [],
      "name": "owner",
      "outputs": [
        {
          "internalType": "address",
          "name": "",
          "type": "address"
        }
      ],
      "stateMutability": "view",
      "type": "function"
    },
    {
      "inputs": [],
      "name": "pause",
      "outputs": [],
      "stateMutability": "nonpayable",
      "type": "function"
    },
    {
      "inputs": [],
      "name": "paused",
      "outputs": [
        {
          "internalType": "bool",
          "name": "",
          "type": "bool"
        }
      ],
      "stateMutability": "view",
      "type": "function"
    },
    {
      "inputs": [],
      "name": "renounceOwnership",
      "outputs": [],
      "stateMutability": "nonpayable",
      "type": "function"
    },
    {
      "inputs": [
        {
          "internalType": "address",
          "name": "game",
          "type": "address"
        },
        {
          "internalType": "uint256",
          "name": "limit",
          "type": "uint256"
        }
      ],
      "name": "setGameAccountslimit",
      "outputs": [],
      "stateMutability": "nonpayable",
      "type": "function"
    },
    {
      "inputs": [
        {
          "internalType": "address",
          "name": "game",
          "type": "address"
        },
        {
          "internalType": "address",
          "name": "_manager",
          "type": "address"
        }
      ],
      "name": "setGameManager",
      "outputs": [],
      "stateMutability": "nonpayable",
      "type": "function"
    },
    {
      "inputs": [
        {
          "internalType": "address",
          "name": "newOwner",
          "type": "address"
        }
      ],
      "name": "transferOwnership",
      "outputs": [],
      "stateMutability": "nonpayable",
      "type": "function"
    },
    {
      "inputs": [],
      "name": "unpause",
      "outputs": [],
      "stateMutability": "nonpayable",
      "type": "function"
    },
    {
      "inputs": [
        {
          "internalType": "address",
          "name": "",
          "type": "address"
        }
      ],
      "name": "userAccount",
      "outputs": [
        {
          "internalType": "address",
          "name": "",
          "type": "address"
        }
      ],
      "stateMutability": "view",
      "type": "function"
    }
  ],
  "bytecode": "0x60806040523480156200001157600080fd5b5060405162001f2b38038062001f2b8339818101604052810190620000379190620001df565b60008060006101000a81548160ff0219169083151502179055506200007162000065620000fb60201b60201c565b6200010360201b60201c565b81600260006101000a81548173ffffffffffffffffffffffffffffffffffffffff021916908373ffffffffffffffffffffffffffffffffffffffff16021790555080600360006101000a81548173ffffffffffffffffffffffffffffffffffffffff021916908373ffffffffffffffffffffffffffffffffffffffff16021790555050506200026e565b600033905090565b60008060019054906101000a900473ffffffffffffffffffffffffffffffffffffffff16905081600060016101000a81548173ffffffffffffffffffffffffffffffffffffffff021916908373ffffffffffffffffffffffffffffffffffffffff1602179055508173ffffffffffffffffffffffffffffffffffffffff168173ffffffffffffffffffffffffffffffffffffffff167f8be0079c531659141344cd1fd0a4f28419497f9722a3daafe3b4186f6b6457e060405160405180910390a35050565b600081519050620001d98162000254565b92915050565b60008060408385031215620001f357600080fd5b60006200020385828601620001c8565b92505060206200021685828601620001c8565b9150509250929050565b60006200022d8262000234565b9050919050565b600073ffffffffffffffffffffffffffffffffffffffff82169050919050565b6200025f8162000220565b81146200026b57600080fd5b50565b611cad806200027e6000396000f3fe608060405234801561001057600080fd5b50600436106101005760003560e01c80638456cb5911610097578063d154f72211610066578063d154f72214610277578063e3d670d714610293578063ea5eda32146102c3578063f2fde38b146102f357610100565b80638456cb59146102015780638da5cb5b1461020b578063a43e567a14610229578063be84c1751461024757610100565b80633f4ba83a116100d35780633f4ba83a1461019f5780635c975abb146101a95780636faad4ea146101c7578063715018a6146101f757610100565b806309038c04146101055780630e403887146101215780630ea772141461015157806333fe5edc1461016f575b600080fd5b61011f600480360381019061011a9190611624565b61030f565b005b61013b60048036038101906101369190611660565b610469565b60405161014891906119bf565b60405180910390f35b61015961049c565b60405161016691906119bf565b60405180910390f35b610189600480360381019061018491906115d5565b6104a4565b60405161019691906119bf565b60405180910390f35b6101a7610b3a565b005b6101b1610c07565b6040516101be9190611a41565b60405180910390f35b6101e160048036038101906101dc9190611547565b610c1d565b6040516101ee9190611a1f565b60405180910390f35b6101ff610d8f565b005b610209610e17565b005b610213610ee5565b60405161022091906119bf565b60405180910390f35b610231610f0e565b60405161023e9190611a1f565b60405180910390f35b610261600480360381019061025c9190611624565b610f9c565b60405161026e9190611a41565b60405180910390f35b610291600480360381019061028c9190611599565b610fcb565b005b6102ad60048036038101906102a89190611547565b6110c9565b6040516102ba9190611b78565b60405180910390f35b6102dd60048036038101906102d89190611547565b6110e1565b6040516102ea91906119bf565b60405180910390f35b61030d60048036038101906103089190611547565b611114565b005b80600c60008473ffffffffffffffffffffffffffffffffffffffff1673ffffffffffffffffffffffffffffffffffffffff168152602001908152602001600020600061035961120c565b73ffffffffffffffffffffffffffffffffffffffff1673ffffffffffffffffffffffffffffffffffffffff16815260200190815260200160002060020180549050106103da576040517f08c379a00000000000000000000000000000000000000000000000000000000081526004016103d190611b38565b60405180910390fd5b80600c60008473ffffffffffffffffffffffffffffffffffffffff1673ffffffffffffffffffffffffffffffffffffffff168152602001908152602001600020600061042461120c565b73ffffffffffffffffffffffffffffffffffffffff1673ffffffffffffffffffffffffffffffffffffffff168152602001908152602001600020600101819055505050565b60056020528060005260406000206000915054906101000a900473ffffffffffffffffffffffffffffffffffffffff1681565b600030905090565b600080600d60008573ffffffffffffffffffffffffffffffffffffffff1673ffffffffffffffffffffffffffffffffffffffff16815260200190815260200160002060009054906101000a900473ffffffffffffffffffffffffffffffffffffffff169050600073ffffffffffffffffffffffffffffffffffffffff168173ffffffffffffffffffffffffffffffffffffffff161415610579576040517f08c379a000000000000000000000000000000000000000000000000000000000815260040161057090611a7c565b60405180910390fd5b600c60008573ffffffffffffffffffffffffffffffffffffffff1673ffffffffffffffffffffffffffffffffffffffff16815260200190815260200160002060008273ffffffffffffffffffffffffffffffffffffffff1673ffffffffffffffffffffffffffffffffffffffff16815260200190815260200160002060010154600c60008673ffffffffffffffffffffffffffffffffffffffff1673ffffffffffffffffffffffffffffffffffffffff16815260200190815260200160002060008373ffffffffffffffffffffffffffffffffffffffff1673ffffffffffffffffffffffffffffffffffffffff16815260200190815260200160002060020180549050106106bc576040517f08c379a00000000000000000000000000000000000000000000000000000000081526004016106b390611b58565b60405180910390fd5b6000600260009054906101000a900473ffffffffffffffffffffffffffffffffffffffff1673ffffffffffffffffffffffffffffffffffffffff1663fd82b73a61070461049c565b61070c61120c565b89600360009054906101000a900473ffffffffffffffffffffffffffffffffffffffff166040518563ffffffff1660e01b815260040161074f94939291906119da565b602060405180830381600087803b15801561076957600080fd5b505af115801561077d573d6000803e3d6000fd5b505050506040513d601f19601f820116820180604052508101906107a19190611570565b9050600360009054906101000a900473ffffffffffffffffffffffffffffffffffffffff1673ffffffffffffffffffffffffffffffffffffffff166354c74ecd82866040518363ffffffff1660e01b8152600401610800929190611abc565b602060405180830381600087803b15801561081a57600080fd5b505af115801561082e573d6000803e3d6000fd5b505050506040513d601f19601f820116820180604052508101906108529190611689565b506004819080600181540180825580915050600190039060005260206000200160009091909190916101000a81548173ffffffffffffffffffffffffffffffffffffffff021916908373ffffffffffffffffffffffffffffffffffffffff16021790555080600660006108c361120c565b73ffffffffffffffffffffffffffffffffffffffff1673ffffffffffffffffffffffffffffffffffffffff16815260200190815260200160002060006101000a81548173ffffffffffffffffffffffffffffffffffffffff021916908373ffffffffffffffffffffffffffffffffffffffff160217905550600c60008673ffffffffffffffffffffffffffffffffffffffff1673ffffffffffffffffffffffffffffffffffffffff16815260200190815260200160002060008373ffffffffffffffffffffffffffffffffffffffff1673ffffffffffffffffffffffffffffffffffffffff168152602001908152602001600020600201819080600181540180825580915050600190039060005260206000200160009091909190916101000a81548173ffffffffffffffffffffffffffffffffffffffff021916908373ffffffffffffffffffffffffffffffffffffffff160217905550610aa6600c60008773ffffffffffffffffffffffffffffffffffffffff1673ffffffffffffffffffffffffffffffffffffffff16815260200190815260200160002060008473ffffffffffffffffffffffffffffffffffffffff1673ffffffffffffffffffffffffffffffffffffffff16815260200190815260200160002060020180549050611214565b610b2e600c60008773ffffffffffffffffffffffffffffffffffffffff1673ffffffffffffffffffffffffffffffffffffffff16815260200190815260200160002060008473ffffffffffffffffffffffffffffffffffffffff1673ffffffffffffffffffffffffffffffffffffffff16815260200190815260200160002060010154611214565b80925050509392505050565b610b4261120c565b73ffffffffffffffffffffffffffffffffffffffff16610b60610ee5565b73ffffffffffffffffffffffffffffffffffffffff1614610bb6576040517f08c379a0000000000000000000000000000000000000000000000000000000008152600401610bad90611b18565b60405180910390fd5b610bbe610c07565b610bfd576040517f08c379a0000000000000000000000000000000000000000000000000000000008152600401610bf490611a5c565b60405180910390fd5b610c056112ad565b565b60008060009054906101000a900460ff16905090565b60606000600d60008473ffffffffffffffffffffffffffffffffffffffff1673ffffffffffffffffffffffffffffffffffffffff16815260200190815260200160002060009054906101000a900473ffffffffffffffffffffffffffffffffffffffff169050600c60008473ffffffffffffffffffffffffffffffffffffffff1673ffffffffffffffffffffffffffffffffffffffff16815260200190815260200160002060008273ffffffffffffffffffffffffffffffffffffffff1673ffffffffffffffffffffffffffffffffffffffff168152602001908152602001600020600201805480602002602001604051908101604052809291908181526020018280548015610d8257602002820191906000526020600020905b8160009054906101000a900473ffffffffffffffffffffffffffffffffffffffff1673ffffffffffffffffffffffffffffffffffffffff1681526020019060010190808311610d38575b5050505050915050919050565b610d9761120c565b73ffffffffffffffffffffffffffffffffffffffff16610db5610ee5565b73ffffffffffffffffffffffffffffffffffffffff1614610e0b576040517f08c379a0000000000000000000000000000000000000000000000000000000008152600401610e0290611b18565b60405180910390fd5b610e15600061134e565b565b610e1f61120c565b73ffffffffffffffffffffffffffffffffffffffff16610e3d610ee5565b73ffffffffffffffffffffffffffffffffffffffff1614610e93576040517f08c379a0000000000000000000000000000000000000000000000000000000008152600401610e8a90611b18565b60405180910390fd5b610e9b610c07565b15610edb576040517f08c379a0000000000000000000000000000000000000000000000000000000008152600401610ed290611af8565b60405180910390fd5b610ee3611413565b565b60008060019054906101000a900473ffffffffffffffffffffffffffffffffffffffff16905090565b60606004805480602002602001604051908101604052809291908181526020018280548015610f9257602002820191906000526020600020905b8160009054906101000a900473ffffffffffffffffffffffffffffffffffffffff1673ffffffffffffffffffffffffffffffffffffffff1681526020019060010190808311610f48575b5050505050905090565b60086020528160005260406000206020528060005260406000206000915091509054906101000a900460ff1681565b610fd361120c565b73ffffffffffffffffffffffffffffffffffffffff16610ff1610ee5565b73ffffffffffffffffffffffffffffffffffffffff1614611047576040517f08c379a000000000000000000000000000000000000000000000000000000000815260040161103e90611b18565b60405180910390fd5b80600d60008473ffffffffffffffffffffffffffffffffffffffff1673ffffffffffffffffffffffffffffffffffffffff16815260200190815260200160002060006101000a81548173ffffffffffffffffffffffffffffffffffffffff021916908373ffffffffffffffffffffffffffffffffffffffff1602179055505050565b600b6020528060005260406000206000915090505481565b60066020528060005260406000206000915054906101000a900473ffffffffffffffffffffffffffffffffffffffff1681565b61111c61120c565b73ffffffffffffffffffffffffffffffffffffffff1661113a610ee5565b73ffffffffffffffffffffffffffffffffffffffff1614611190576040517f08c379a000000000000000000000000000000000000000000000000000000000815260040161118790611b18565b60405180910390fd5b600073ffffffffffffffffffffffffffffffffffffffff168173ffffffffffffffffffffffffffffffffffffffff161415611200576040517f08c379a00000000000000000000000000000000000000000000000000000000081526004016111f790611a9c565b60405180910390fd5b6112098161134e565b50565b600033905090565b6112aa816040516024016112289190611b78565b6040516020818303038152906040527ff5b1bba9000000000000000000000000000000000000000000000000000000007bffffffffffffffffffffffffffffffffffffffffffffffffffffffff19166020820180517bffffffffffffffffffffffffffffffffffffffffffffffffffffffff83818316178352505050506114b5565b50565b6112b5610c07565b6112f4576040517f08c379a00000000000000000000000000000000000000000000000000000000081526004016112eb90611a5c565b60405180910390fd5b60008060006101000a81548160ff0219169083151502179055507f5db9ee0a495bf2e6ff9c91a7834c1ba4fdd244a5e8aa4e537bd38aeae4b073aa61133761120c565b60405161134491906119bf565b60405180910390a1565b60008060019054906101000a900473ffffffffffffffffffffffffffffffffffffffff16905081600060016101000a81548173ffffffffffffffffffffffffffffffffffffffff021916908373ffffffffffffffffffffffffffffffffffffffff1602179055508173ffffffffffffffffffffffffffffffffffffffff168173ffffffffffffffffffffffffffffffffffffffff167f8be0079c531659141344cd1fd0a4f28419497f9722a3daafe3b4186f6b6457e060405160405180910390a35050565b61141b610c07565b1561145b576040517f08c379a000000000000000000000000000000000000000000000000000000000815260040161145290611af8565b60405180910390fd5b60016000806101000a81548160ff0219169083151502179055507f62e78cea01bee320cd4e420270b5ea74000d11b0c9f74754ebdbfc544b05a25861149e61120c565b6040516114ab91906119bf565b60405180910390a1565b60008151905060006a636f6e736f6c652e6c6f679050602083016000808483855afa5050505050565b6000813590506114ed81611c32565b92915050565b60008151905061150281611c32565b92915050565b60008135905061151781611c49565b92915050565b60008151905061152c81611c49565b92915050565b60008135905061154181611c60565b92915050565b60006020828403121561155957600080fd5b6000611567848285016114de565b91505092915050565b60006020828403121561158257600080fd5b6000611590848285016114f3565b91505092915050565b600080604083850312156115ac57600080fd5b60006115ba858286016114de565b92505060206115cb858286016114de565b9150509250929050565b6000806000606084860312156115ea57600080fd5b60006115f8868287016114de565b9350506020611609868287016114de565b925050604061161a86828701611532565b9150509250925092565b6000806040838503121561163757600080fd5b6000611645858286016114de565b925050602061165685828601611508565b9150509250929050565b60006020828403121561167257600080fd5b600061168084828501611508565b91505092915050565b60006020828403121561169b57600080fd5b60006116a98482850161151d565b91505092915050565b60006116be83836116ca565b60208301905092915050565b6116d381611bdd565b82525050565b6116e281611bdd565b82525050565b60006116f382611ba3565b6116fd8185611bbb565b935061170883611b93565b8060005b8381101561173957815161172088826116b2565b975061172b83611bae565b92505060018101905061170c565b5085935050505092915050565b61174f81611bef565b82525050565b6000611762601483611bcc565b91507f5061757361626c653a206e6f74207061757365640000000000000000000000006000830152602082019050919050565b60006117a2601383611bcc565b91507f67616d6520646f6573206e6f74206578697374000000000000000000000000006000830152602082019050919050565b60006117e2602683611bcc565b91507f4f776e61626c653a206e6577206f776e657220697320746865207a65726f206160008301527f64647265737300000000000000000000000000000000000000000000000000006020830152604082019050919050565b6000611848600383611bcc565b91507f55524900000000000000000000000000000000000000000000000000000000006000830152602082019050919050565b6000611888601083611bcc565b91507f5061757361626c653a20706175736564000000000000000000000000000000006000830152602082019050919050565b60006118c8602083611bcc565b91507f4f776e61626c653a2063616c6c6572206973206e6f7420746865206f776e65726000830152602082019050919050565b6000611908602683611bcc565b91507f6c696d6974206973206c657373207468616e206163636f756e74732067656e6560008301527f72617465642000000000000000000000000000000000000000000000000000006020830152604082019050919050565b600061196e601d83611bcc565b91507f6163636f756e7420726571756573742065786365656473206c696d69740000006000830152602082019050919050565b6119aa81611c1b565b82525050565b6119b981611c25565b82525050565b60006020820190506119d460008301846116d9565b92915050565b60006080820190506119ef60008301876116d9565b6119fc60208301866116d9565b611a0960408301856116d9565b611a1660608301846116d9565b95945050505050565b60006020820190508181036000830152611a3981846116e8565b905092915050565b6000602082019050611a566000830184611746565b92915050565b60006020820190508181036000830152611a7581611755565b9050919050565b60006020820190508181036000830152611a9581611795565b9050919050565b60006020820190508181036000830152611ab5816117d5565b9050919050565b60006060820190508181036000830152611ad58161183b565b9050611ae460208301856116d9565b611af160408301846119b0565b9392505050565b60006020820190508181036000830152611b118161187b565b9050919050565b60006020820190508181036000830152611b31816118bb565b9050919050565b60006020820190508181036000830152611b51816118fb565b9050919050565b60006020820190508181036000830152611b7181611961565b9050919050565b6000602082019050611b8d60008301846119a1565b92915050565b6000819050602082019050919050565b600081519050919050565b6000602082019050919050565b600082825260208201905092915050565b600082825260208201905092915050565b6000611be882611bfb565b9050919050565b60008115159050919050565b600073ffffffffffffffffffffffffffffffffffffffff82169050919050565b6000819050919050565b600060ff82169050919050565b611c3b81611bdd565b8114611c4657600080fd5b50565b611c5281611c1b565b8114611c5d57600080fd5b50565b611c6981611c25565b8114611c7457600080fd5b5056fea2646970667358221220e5ced9e8a3d8d73dd06cf237b23046836266a5e4cc39f8ae6d97123f686c970a64736f6c63430008000033",
  "linkReferences": {},
  "deployedLinkReferences": {}
}