{
  "_format": "hh-sol-artifact-1",
  "contractName": "Badge",
  "sourceName": "contracts/Badge.sol",
  "abi": [
    {
      "inputs": [],
      "stateMutability": "nonpayable",
      "type": "constructor"
    },
    {
      "anonymous": false,
      "inputs": [
        {
          "indexed": true,
          "internalType": "address",
          "name": "owner",
          "type": "address"
        },
        {
          "indexed": true,
          "internalType": "address",
          "name": "approved",
          "type": "address"
        },
        {
          "indexed": true,
          "internalType": "uint256",
          "name": "tokenId",
          "type": "uint256"
        }
      ],
      "name": "Approval",
      "type": "event"
    },
    {
      "anonymous": false,
      "inputs": [
        {
          "indexed": true,
          "internalType": "address",
          "name": "owner",
          "type": "address"
        },
        {
          "indexed": true,
          "internalType": "address",
          "name": "operator",
          "type": "address"
        },
        {
          "indexed": false,
          "internalType": "bool",
          "name": "approved",
          "type": "bool"
        }
      ],
      "name": "ApprovalForAll",
      "type": "event"
    },
    {
      "anonymous": false,
      "inputs": [
        {
          "indexed": true,
          "internalType": "address",
          "name": "previousOwner",
          "type": "address"
        },
        {
          "indexed": true,
          "internalType": "address",
          "name": "newOwner",
          "type": "address"
        }
      ],
      "name": "OwnershipTransferred",
      "type": "event"
    },
    {
      "anonymous": false,
      "inputs": [
        {
          "indexed": true,
          "internalType": "address",
          "name": "from",
          "type": "address"
        },
        {
          "indexed": true,
          "internalType": "address",
          "name": "to",
          "type": "address"
        },
        {
          "indexed": true,
          "internalType": "uint256",
          "name": "tokenId",
          "type": "uint256"
        }
      ],
      "name": "Transfer",
      "type": "event"
    },
    {
      "inputs": [],
      "name": "Bronze",
      "outputs": [
        {
          "internalType": "uint256",
          "name": "",
          "type": "uint256"
        }
      ],
      "stateMutability": "view",
      "type": "function"
    },
    {
      "inputs": [],
      "name": "Gold",
      "outputs": [
        {
          "internalType": "uint256",
          "name": "",
          "type": "uint256"
        }
      ],
      "stateMutability": "view",
      "type": "function"
    },
    {
      "inputs": [],
      "name": "Silver",
      "outputs": [
        {
          "internalType": "uint256",
          "name": "",
          "type": "uint256"
        }
      ],
      "stateMutability": "view",
      "type": "function"
    },
    {
      "inputs": [
        {
          "internalType": "address",
          "name": "_wallet",
          "type": "address"
        }
      ],
      "name": "_setwalletAddress",
      "outputs": [],
      "stateMutability": "nonpayable",
      "type": "function"
    },
    {
      "inputs": [
        {
          "internalType": "address",
          "name": "owner_",
          "type": "address"
        }
      ],
      "name": "addOwner",
      "outputs": [],
      "stateMutability": "nonpayable",
      "type": "function"
    },
    {
      "inputs": [
        {
          "internalType": "address",
          "name": "",
          "type": "address"
        }
      ],
      "name": "addressMintedBalance",
      "outputs": [
        {
          "internalType": "uint256",
          "name": "",
          "type": "uint256"
        }
      ],
      "stateMutability": "view",
      "type": "function"
    },
    {
      "inputs": [
        {
          "internalType": "address",
          "name": "to",
          "type": "address"
        },
        {
          "internalType": "uint256",
          "name": "tokenId",
          "type": "uint256"
        }
      ],
      "name": "approve",
      "outputs": [],
      "stateMutability": "nonpayable",
      "type": "function"
    },
    {
      "inputs": [
        {
          "internalType": "address",
          "name": "owner",
          "type": "address"
        }
      ],
      "name": "balanceOf",
      "outputs": [
        {
          "internalType": "uint256",
          "name": "",
          "type": "uint256"
        }
      ],
      "stateMutability": "view",
      "type": "function"
    },
    {
      "inputs": [],
      "name": "baseURI",
      "outputs": [
        {
          "internalType": "string",
          "name": "",
          "type": "string"
        }
      ],
      "stateMutability": "view",
      "type": "function"
    },
    {
      "inputs": [
        {
          "internalType": "string",
          "name": "_tokenURI",
          "type": "string"
        },
        {
          "internalType": "address",
          "name": "account",
          "type": "address"
        },
        {
          "internalType": "uint8",
          "name": "_nftType",
          "type": "uint8"
        }
      ],
      "name": "createToken",
      "outputs": [
        {
          "internalType": "uint256",
          "name": "",
          "type": "uint256"
        }
      ],
      "stateMutability": "nonpayable",
      "type": "function"
    },
    {
      "inputs": [
        {
          "internalType": "uint256",
          "name": "tokenId",
          "type": "uint256"
        }
      ],
      "name": "getApproved",
      "outputs": [
        {
          "internalType": "address",
          "name": "",
          "type": "address"
        }
      ],
      "stateMutability": "view",
      "type": "function"
    },
    {
      "inputs": [
        {
          "internalType": "address",
          "name": "owner",
          "type": "address"
        },
        {
          "internalType": "address",
          "name": "operator",
          "type": "address"
        }
      ],
      "name": "isApprovedForAll",
      "outputs": [
        {
          "internalType": "bool",
          "name": "",
          "type": "bool"
        }
      ],
      "stateMutability": "view",
      "type": "function"
    },
    {
      "inputs": [],
      "name": "maxSupply",
      "outputs": [
        {
          "internalType": "uint256",
          "name": "",
          "type": "uint256"
        }
      ],
      "stateMutability": "view",
      "type": "function"
    },
    {
      "inputs": [],
      "name": "name",
      "outputs": [
        {
          "internalType": "string",
          "name": "",
          "type": "string"
        }
      ],
      "stateMutability": "view",
      "type": "function"
    },
    {
      "inputs": [
        {
          "internalType": "uint256",
          "name": "",
          "type": "uint256"
        }
      ],
      "name": "nftType",
      "outputs": [
        {
          "internalType": "uint256",
          "name": "",
          "type": "uint256"
        }
      ],
      "stateMutability": "view",
      "type": "function"
    },
    {
      "inputs": [],
      "name": "owner",
      "outputs": [
        {
          "internalType": "address",
          "name": "",
          "type": "address"
        }
      ],
      "stateMutability": "view",
      "type": "function"
    },
    {
      "inputs": [
        {
          "internalType": "uint256",
          "name": "tokenId",
          "type": "uint256"
        }
      ],
      "name": "ownerOf",
      "outputs": [
        {
          "internalType": "address",
          "name": "",
          "type": "address"
        }
      ],
      "stateMutability": "view",
      "type": "function"
    },
    {
      "inputs": [],
      "name": "renounceOwnership",
      "outputs": [],
      "stateMutability": "nonpayable",
      "type": "function"
    },
    {
      "inputs": [
        {
          "internalType": "address",
          "name": "from",
          "type": "address"
        },
        {
          "internalType": "address",
          "name": "to",
          "type": "address"
        },
        {
          "internalType": "uint256",
          "name": "tokenId",
          "type": "uint256"
        }
      ],
      "name": "safeTransferFrom",
      "outputs": [],
      "stateMutability": "nonpayable",
      "type": "function"
    },
    {
      "inputs": [
        {
          "internalType": "address",
          "name": "from",
          "type": "address"
        },
        {
          "internalType": "address",
          "name": "to",
          "type": "address"
        },
        {
          "internalType": "uint256",
          "name": "tokenId",
          "type": "uint256"
        },
        {
          "internalType": "bytes",
          "name": "_data",
          "type": "bytes"
        }
      ],
      "name": "safeTransferFrom",
      "outputs": [],
      "stateMutability": "nonpayable",
      "type": "function"
    },
    {
      "inputs": [
        {
          "internalType": "address",
          "name": "operator",
          "type": "address"
        },
        {
          "internalType": "bool",
          "name": "approved",
          "type": "bool"
        }
      ],
      "name": "setApprovalForAll",
      "outputs": [],
      "stateMutability": "nonpayable",
      "type": "function"
    },
    {
      "inputs": [
        {
          "internalType": "bytes4",
          "name": "interfaceId",
          "type": "bytes4"
        }
      ],
      "name": "supportsInterface",
      "outputs": [
        {
          "internalType": "bool",
          "name": "",
          "type": "bool"
        }
      ],
      "stateMutability": "view",
      "type": "function"
    },
    {
      "inputs": [],
      "name": "symbol",
      "outputs": [
        {
          "internalType": "string",
          "name": "",
          "type": "string"
        }
      ],
      "stateMutability": "view",
      "type": "function"
    },
    {
      "inputs": [
        {
          "internalType": "uint256",
          "name": "index",
          "type": "uint256"
        }
      ],
      "name": "tokenByIndex",
      "outputs": [
        {
          "internalType": "uint256",
          "name": "",
          "type": "uint256"
        }
      ],
      "stateMutability": "view",
      "type": "function"
    },
    {
      "inputs": [
        {
          "internalType": "address",
          "name": "owner",
          "type": "address"
        },
        {
          "internalType": "uint256",
          "name": "index",
          "type": "uint256"
        }
      ],
      "name": "tokenOfOwnerByIndex",
      "outputs": [
        {
          "internalType": "uint256",
          "name": "",
          "type": "uint256"
        }
      ],
      "stateMutability": "view",
      "type": "function"
    },
    {
      "inputs": [
        {
          "internalType": "uint256",
          "name": "id",
          "type": "uint256"
        }
      ],
      "name": "tokenType",
      "outputs": [
        {
          "internalType": "uint256",
          "name": "",
          "type": "uint256"
        }
      ],
      "stateMutability": "view",
      "type": "function"
    },
    {
      "inputs": [
        {
          "internalType": "uint256",
          "name": "tokenId",
          "type": "uint256"
        }
      ],
      "name": "tokenURI",
      "outputs": [
        {
          "internalType": "string",
          "name": "",
          "type": "string"
        }
      ],
      "stateMutability": "view",
      "type": "function"
    },
    {
      "inputs": [
        {
          "internalType": "address",
          "name": "from",
          "type": "address"
        },
        {
          "internalType": "address",
          "name": "to",
          "type": "address"
        },
        {
          "internalType": "uint256",
          "name": "tokenId",
          "type": "uint256"
        }
      ],
      "name": "transferFrom",
      "outputs": [],
      "stateMutability": "nonpayable",
      "type": "function"
    },
    {
      "inputs": [
        {
          "internalType": "address",
          "name": "newOwner",
          "type": "address"
        }
      ],
      "name": "transferOwnership",
      "outputs": [],
      "stateMutability": "nonpayable",
      "type": "function"
    },
    {
      "inputs": [
        {
          "internalType": "uint256",
          "name": "",
          "type": "uint256"
        }
      ],
      "name": "whitelistedAddresses",
      "outputs": [
        {
          "internalType": "address",
          "name": "",
          "type": "address"
        }
      ],
      "stateMutability": "view",
      "type": "function"
    }
  ],
  "bytecode": "0x60806040523480156200001157600080fd5b506040518060400160405280600581526020017f62616467650000000000000000000000000000000000000000000000000000008152506040518060400160405280600281526020017f42540000000000000000000000000000000000000000000000000000000000008152508160009080519060200190620000969291906200020d565b508060019080519060200190620000af9291906200020d565b505050620000d2620000c66200013f60201b60201c565b6200014760201b60201c565b6001600f6000620000e86200013f60201b60201c565b73ffffffffffffffffffffffffffffffffffffffff1673ffffffffffffffffffffffffffffffffffffffff16815260200190815260200160002060006101000a81548160ff02191690831515021790555062000322565b600033905090565b6000600660009054906101000a900473ffffffffffffffffffffffffffffffffffffffff16905081600660006101000a81548173ffffffffffffffffffffffffffffffffffffffff021916908373ffffffffffffffffffffffffffffffffffffffff1602179055508173ffffffffffffffffffffffffffffffffffffffff168173ffffffffffffffffffffffffffffffffffffffff167f8be0079c531659141344cd1fd0a4f28419497f9722a3daafe3b4186f6b6457e060405160405180910390a35050565b8280546200021b90620002bd565b90600052602060002090601f0160209004810192826200023f57600085556200028b565b82601f106200025a57805160ff19168380011785556200028b565b828001600101855582156200028b579182015b828111156200028a5782518255916020019190600101906200026d565b5b5090506200029a91906200029e565b5090565b5b80821115620002b95760008160009055506001016200029f565b5090565b60006002820490506001821680620002d657607f821691505b60208210811415620002ed57620002ec620002f3565b5b50919050565b7f4e487b7100000000000000000000000000000000000000000000000000000000600052602260045260246000fd5b61407380620003326000396000f3fe608060405234801561001057600080fd5b50600436106101da5760003560e01c8063715018a611610104578063c8449b65116100a2578063e985e9c511610071578063e985e9c5146105a3578063ed683582146105d3578063f2fde38b146105ef578063fe2752801461060b576101da565b8063c8449b6514610507578063c87b56dd14610525578063d5abeb0114610555578063e6c3b1f614610573576101da565b8063a22cb465116100de578063a22cb4651461046f578063af1747841461048b578063b88d4fde146104bb578063ba4e5c49146104d7576101da565b8063715018a6146104295780638da5cb5b1461043357806395d89b4114610451576101da565b80632f745c591161017c5780636352211e1161014b5780636352211e1461038f5780636c0360eb146103bf5780637065cb48146103dd57806370a08231146103f9576101da565b80632f745c59146102e357806342842e0e146103135780634f6ccce71461032f57806354c74ecd1461035f576101da565b8063095ea7b3116101b8578063095ea7b31461025d57806310ca7d1c1461027957806318cae2691461029757806323b872dd146102c7576101da565b806301ffc9a7146101df57806306fdde031461020f578063081812fc1461022d575b600080fd5b6101f960048036038101906101f49190612daa565b610629565b6040516102069190613887565b60405180910390f35b61021761070b565b60405161022491906138a2565b60405180910390f35b61024760048036038101906102429190612e63565b61079d565b6040516102549190613820565b60405180910390f35b61027760048036038101906102729190612d6e565b610822565b005b61028161093a565b60405161028e9190613be4565b60405180910390f35b6102b160048036038101906102ac9190612c03565b610940565b6040516102be9190613be4565b60405180910390f35b6102e160048036038101906102dc9190612c68565b610958565b005b6102fd60048036038101906102f89190612d6e565b6109b8565b60405161030a9190613be4565b60405180910390f35b61032d60048036038101906103289190612c68565b610a5d565b005b61034960048036038101906103449190612e63565b610a7d565b6040516103569190613be4565b60405180910390f35b61037960048036038101906103749190612dfc565b610b15565b6040516103869190613be4565b60405180910390f35b6103a960048036038101906103a49190612e63565b610cec565b6040516103b69190613820565b60405180910390f35b6103c7610d9e565b6040516103d491906138a2565b60405180910390f35b6103f760048036038101906103f29190612c03565b610ddb565b005b610413600480360381019061040e9190612c03565b610f64565b6040516104209190613be4565b60405180910390f35b61043161101c565b005b61043b6110a4565b6040516104489190613820565b60405180910390f35b6104596110ce565b60405161046691906138a2565b60405180910390f35b61048960048036038101906104849190612d32565b611160565b005b6104a560048036038101906104a09190612e63565b6112e1565b6040516104b29190613be4565b60405180910390f35b6104d560048036038101906104d09190612cb7565b6112f9565b005b6104f160048036038101906104ec9190612e63565b61135b565b6040516104fe9190613820565b60405180910390f35b61050f61139a565b60405161051c9190613be4565b60405180910390f35b61053f600480360381019061053a9190612e63565b6113a0565b60405161054c91906138a2565b60405180910390f35b61055d6114f2565b60405161056a9190613be4565b60405180910390f35b61058d60048036038101906105889190612e63565b6114f8565b60405161059a9190613be4565b60405180910390f35b6105bd60048036038101906105b89190612c2c565b611515565b6040516105ca9190613887565b60405180910390f35b6105ed60048036038101906105e89190612c03565b6115a9565b005b61060960048036038101906106049190612c03565b611731565b005b610613611829565b6040516106209190613be4565b60405180910390f35b60007f80ac58cd000000000000000000000000000000000000000000000000000000007bffffffffffffffffffffffffffffffffffffffffffffffffffffffff1916827bffffffffffffffffffffffffffffffffffffffffffffffffffffffff191614806106f457507f5b5e139f000000000000000000000000000000000000000000000000000000007bffffffffffffffffffffffffffffffffffffffffffffffffffffffff1916827bffffffffffffffffffffffffffffffffffffffffffffffffffffffff1916145b8061070457506107038261182f565b5b9050919050565b60606000805461071a90613e51565b80601f016020809104026020016040519081016040528092919081815260200182805461074690613e51565b80156107935780601f1061076857610100808354040283529160200191610793565b820191906000526020600020905b81548152906001019060200180831161077657829003601f168201915b5050505050905090565b60006107a882611899565b6107e7576040517f08c379a00000000000000000000000000000000000000000000000000000000081526004016107de90613ae4565b60405180910390fd5b6004600083815260200190815260200160002060009054906101000a900473ffffffffffffffffffffffffffffffffffffffff169050919050565b600061082d82610cec565b90508073ffffffffffffffffffffffffffffffffffffffff168373ffffffffffffffffffffffffffffffffffffffff16141561089e576040517f08c379a000000000000000000000000000000000000000000000000000000000815260040161089590613b84565b60405180910390fd5b8073ffffffffffffffffffffffffffffffffffffffff166108bd611905565b73ffffffffffffffffffffffffffffffffffffffff1614806108ec57506108eb816108e6611905565b611515565b5b61092b576040517f08c379a000000000000000000000000000000000000000000000000000000000815260040161092290613a24565b60405180910390fd5b610935838361190d565b505050565b600c5481565b60106020528060005260406000206000915090505481565b610969610963611905565b826119c6565b6109a8576040517f08c379a000000000000000000000000000000000000000000000000000000000815260040161099f90613ba4565b60405180910390fd5b6109b3838383611aa4565b505050565b60006109c383610f64565b8210610a04576040517f08c379a00000000000000000000000000000000000000000000000000000000081526004016109fb906138c4565b60405180910390fd5b601360008473ffffffffffffffffffffffffffffffffffffffff1673ffffffffffffffffffffffffffffffffffffffff168152602001908152602001600020600083815260200190815260200160002054905092915050565b610a78838383604051806020016040528060008152506112f9565b505050565b6000610a87611d00565b821115610ac9576040517f08c379a0000000000000000000000000000000000000000000000000000000008152600401610ac090613bc4565b60405180910390fd5b60168281548110610b03577f4e487b7100000000000000000000000000000000000000000000000000000000600052603260045260246000fd5b90600052602060002001549050919050565b600060011515600f6000610b27611905565b73ffffffffffffffffffffffffffffffffffffffff1673ffffffffffffffffffffffffffffffffffffffff16815260200190815260200160002060009054906101000a900460ff16151514610bb1576040517f08c379a0000000000000000000000000000000000000000000000000000000008152600401610ba8906139c4565b60405180910390fd5b6005601060008573ffffffffffffffffffffffffffffffffffffffff1673ffffffffffffffffffffffffffffffffffffffff1681526020019081526020016000205410610c33576040517f08c379a0000000000000000000000000000000000000000000000000000000008152600401610c2a90613944565b60405180910390fd5b610c3c82611d11565b610c4557600080fd5b610c4f6007611de4565b6000610c5b6007611dfa565b9050610c678482611e08565b610c718186611fd6565b8260ff166015600083815260200190815260200160002081905550601060008573ffffffffffffffffffffffffffffffffffffffff1673ffffffffffffffffffffffffffffffffffffffff1681526020019081526020016000206000815480929190610cdc90613e83565b9190505550809150509392505050565b6000806002600084815260200190815260200160002060009054906101000a900473ffffffffffffffffffffffffffffffffffffffff169050600073ffffffffffffffffffffffffffffffffffffffff168173ffffffffffffffffffffffffffffffffffffffff161415610d95576040517f08c379a0000000000000000000000000000000000000000000000000000000008152600401610d8c90613a64565b60405180910390fd5b80915050919050565b60606040518060400160405280601581526020017f68747470733a2f2f697066732e696f2f697066732f0000000000000000000000815250905090565b610de3611905565b73ffffffffffffffffffffffffffffffffffffffff16600960009054906101000a900473ffffffffffffffffffffffffffffffffffffffff1673ffffffffffffffffffffffffffffffffffffffff1614610e72576040517f08c379a0000000000000000000000000000000000000000000000000000000008152600401610e6990613b04565b60405180910390fd5b610e7a611905565b73ffffffffffffffffffffffffffffffffffffffff16600960009054906101000a900473ffffffffffffffffffffffffffffffffffffffff1673ffffffffffffffffffffffffffffffffffffffff1614610f09576040517f08c379a0000000000000000000000000000000000000000000000000000000008152600401610f0090613a04565b60405180910390fd5b6001600f60008373ffffffffffffffffffffffffffffffffffffffff1673ffffffffffffffffffffffffffffffffffffffff16815260200190815260200160002060006101000a81548160ff02191690831515021790555050565b60008073ffffffffffffffffffffffffffffffffffffffff168273ffffffffffffffffffffffffffffffffffffffff161415610fd5576040517f08c379a0000000000000000000000000000000000000000000000000000000008152600401610fcc90613a44565b60405180910390fd5b600360008373ffffffffffffffffffffffffffffffffffffffff1673ffffffffffffffffffffffffffffffffffffffff168152602001908152602001600020549050919050565b611024611905565b73ffffffffffffffffffffffffffffffffffffffff166110426110a4565b73ffffffffffffffffffffffffffffffffffffffff1614611098576040517f08c379a000000000000000000000000000000000000000000000000000000000815260040161108f90613b04565b60405180910390fd5b6110a2600061204a565b565b6000600660009054906101000a900473ffffffffffffffffffffffffffffffffffffffff16905090565b6060600180546110dd90613e51565b80601f016020809104026020016040519081016040528092919081815260200182805461110990613e51565b80156111565780601f1061112b57610100808354040283529160200191611156565b820191906000526020600020905b81548152906001019060200180831161113957829003601f168201915b5050505050905090565b611168611905565b73ffffffffffffffffffffffffffffffffffffffff168273ffffffffffffffffffffffffffffffffffffffff1614156111d6576040517f08c379a00000000000000000000000000000000000000000000000000000000081526004016111cd90613984565b60405180910390fd5b80600560006111e3611905565b73ffffffffffffffffffffffffffffffffffffffff1673ffffffffffffffffffffffffffffffffffffffff16815260200190815260200160002060008473ffffffffffffffffffffffffffffffffffffffff1673ffffffffffffffffffffffffffffffffffffffff16815260200190815260200160002060006101000a81548160ff0219169083151502179055508173ffffffffffffffffffffffffffffffffffffffff16611290611905565b73ffffffffffffffffffffffffffffffffffffffff167f17307eab39ab6107e8899845ad3d59bd9653f200f220920489ca2b5937696c31836040516112d59190613887565b60405180910390a35050565b60116020528060005260406000206000915090505481565b61130a611304611905565b836119c6565b611349576040517f08c379a000000000000000000000000000000000000000000000000000000000815260040161134090613ba4565b60405180910390fd5b61135584848484612110565b50505050565b600b818154811061136b57600080fd5b906000526020600020016000915054906101000a900473ffffffffffffffffffffffffffffffffffffffff1681565b600e5481565b60606113ab82611899565b6113ea576040517f08c379a00000000000000000000000000000000000000000000000000000000081526004016113e190613ac4565b60405180910390fd5b600060126000848152602001908152602001600020805461140a90613e51565b80601f016020809104026020016040519081016040528092919081815260200182805461143690613e51565b80156114835780601f1061145857610100808354040283529160200191611483565b820191906000526020600020905b81548152906001019060200180831161146657829003601f168201915b505050505090506000611494610d9e565b90506000815114156114aa5781925050506114ed565b6000825111156114df5780826040516020016114c79291906137fc565b604051602081830303815290604052925050506114ed565b6114e88461216c565b925050505b919050565b600a5481565b600060156000838152602001908152602001600020549050919050565b6000600560008473ffffffffffffffffffffffffffffffffffffffff1673ffffffffffffffffffffffffffffffffffffffff16815260200190815260200160002060008373ffffffffffffffffffffffffffffffffffffffff1673ffffffffffffffffffffffffffffffffffffffff16815260200190815260200160002060009054906101000a900460ff16905092915050565b6115b1611905565b73ffffffffffffffffffffffffffffffffffffffff166115cf6110a4565b73ffffffffffffffffffffffffffffffffffffffff1614611625576040517f08c379a000000000000000000000000000000000000000000000000000000000815260040161161c90613b04565b60405180910390fd5b600073ffffffffffffffffffffffffffffffffffffffff168173ffffffffffffffffffffffffffffffffffffffff161415611695576040517f08c379a000000000000000000000000000000000000000000000000000000000815260040161168c90613b64565b60405180910390fd5b80600960006101000a81548173ffffffffffffffffffffffffffffffffffffffff021916908373ffffffffffffffffffffffffffffffffffffffff1602179055506001600f60008373ffffffffffffffffffffffffffffffffffffffff1673ffffffffffffffffffffffffffffffffffffffff16815260200190815260200160002060006101000a81548160ff02191690831515021790555050565b611739611905565b73ffffffffffffffffffffffffffffffffffffffff166117576110a4565b73ffffffffffffffffffffffffffffffffffffffff16146117ad576040517f08c379a00000000000000000000000000000000000000000000000000000000081526004016117a490613b04565b60405180910390fd5b600073ffffffffffffffffffffffffffffffffffffffff168173ffffffffffffffffffffffffffffffffffffffff16141561181d576040517f08c379a000000000000000000000000000000000000000000000000000000000815260040161181490613904565b60405180910390fd5b6118268161204a565b50565b600d5481565b60007f01ffc9a7000000000000000000000000000000000000000000000000000000007bffffffffffffffffffffffffffffffffffffffffffffffffffffffff1916827bffffffffffffffffffffffffffffffffffffffffffffffffffffffff1916149050919050565b60008073ffffffffffffffffffffffffffffffffffffffff166002600084815260200190815260200160002060009054906101000a900473ffffffffffffffffffffffffffffffffffffffff1673ffffffffffffffffffffffffffffffffffffffff1614159050919050565b600033905090565b816004600083815260200190815260200160002060006101000a81548173ffffffffffffffffffffffffffffffffffffffff021916908373ffffffffffffffffffffffffffffffffffffffff160217905550808273ffffffffffffffffffffffffffffffffffffffff1661198083610cec565b73ffffffffffffffffffffffffffffffffffffffff167f8c5be1e5ebec7d5bd14f71427d1e84f3dd0314c0f7b2291e5b200ac8c7c3b92560405160405180910390a45050565b60006119d182611899565b611a10576040517f08c379a0000000000000000000000000000000000000000000000000000000008152600401611a07906139a4565b60405180910390fd5b6000611a1b83610cec565b90508073ffffffffffffffffffffffffffffffffffffffff168473ffffffffffffffffffffffffffffffffffffffff161480611a8a57508373ffffffffffffffffffffffffffffffffffffffff16611a728461079d565b73ffffffffffffffffffffffffffffffffffffffff16145b80611a9b5750611a9a8185611515565b5b91505092915050565b8273ffffffffffffffffffffffffffffffffffffffff16611ac482610cec565b73ffffffffffffffffffffffffffffffffffffffff1614611b1a576040517f08c379a0000000000000000000000000000000000000000000000000000000008152600401611b1190613b24565b60405180910390fd5b600073ffffffffffffffffffffffffffffffffffffffff168273ffffffffffffffffffffffffffffffffffffffff161415611b8a576040517f08c379a0000000000000000000000000000000000000000000000000000000008152600401611b8190613964565b60405180910390fd5b611b95838383612213565b611ba060008261190d565b6001600360008573ffffffffffffffffffffffffffffffffffffffff1673ffffffffffffffffffffffffffffffffffffffff1681526020019081526020016000206000828254611bf09190613d5a565b925050819055506001600360008473ffffffffffffffffffffffffffffffffffffffff1673ffffffffffffffffffffffffffffffffffffffff1681526020019081526020016000206000828254611c479190613cd3565b92505081905550816002600083815260200190815260200160002060006101000a81548173ffffffffffffffffffffffffffffffffffffffff021916908373ffffffffffffffffffffffffffffffffffffffff160217905550808273ffffffffffffffffffffffffffffffffffffffff168473ffffffffffffffffffffffffffffffffffffffff167fddf252ad1be2c89b69c2b068fc378daa952ba7f163c4a11628f55a4df523b3ef60405160405180910390a4505050565b6000611d0c6007611dfa565b905090565b6000808260ff161415611d3f57600c6000815480929190611d3190613e83565b919050555060019050611ddf565b60018260ff161415611d6c57600d6000815480929190611d5e90613e83565b919050555060019050611ddf565b60028260ff161415611d9957600e6000815480929190611d8b90613e83565b919050555060019050611ddf565b6000611dda576040517f08c379a0000000000000000000000000000000000000000000000000000000008152600401611dd1906139e4565b60405180910390fd5b600090505b919050565b6001816000016000828254019250508190555050565b600081600001549050919050565b600073ffffffffffffffffffffffffffffffffffffffff168273ffffffffffffffffffffffffffffffffffffffff161415611e78576040517f08c379a0000000000000000000000000000000000000000000000000000000008152600401611e6f90613aa4565b60405180910390fd5b611e8181611899565b15611ec1576040517f08c379a0000000000000000000000000000000000000000000000000000000008152600401611eb890613924565b60405180910390fd5b611ecd60008383612213565b6001600360008473ffffffffffffffffffffffffffffffffffffffff1673ffffffffffffffffffffffffffffffffffffffff1681526020019081526020016000206000828254611f1d9190613cd3565b92505081905550816002600083815260200190815260200160002060006101000a81548173ffffffffffffffffffffffffffffffffffffffff021916908373ffffffffffffffffffffffffffffffffffffffff160217905550808273ffffffffffffffffffffffffffffffffffffffff16600073ffffffffffffffffffffffffffffffffffffffff167fddf252ad1be2c89b69c2b068fc378daa952ba7f163c4a11628f55a4df523b3ef60405160405180910390a45050565b611fdf82611899565b61201e576040517f08c379a000000000000000000000000000000000000000000000000000000000815260040161201590613a84565b60405180910390fd5b80601260008481526020019081526020016000209080519060200190612045929190612a12565b505050565b6000600660009054906101000a900473ffffffffffffffffffffffffffffffffffffffff16905081600660006101000a81548173ffffffffffffffffffffffffffffffffffffffff021916908373ffffffffffffffffffffffffffffffffffffffff1602179055508173ffffffffffffffffffffffffffffffffffffffff168173ffffffffffffffffffffffffffffffffffffffff167f8be0079c531659141344cd1fd0a4f28419497f9722a3daafe3b4186f6b6457e060405160405180910390a35050565b61211b848484611aa4565b61212784848484612327565b612166576040517f08c379a000000000000000000000000000000000000000000000000000000000815260040161215d906138e4565b60405180910390fd5b50505050565b606061217782611899565b6121b6576040517f08c379a00000000000000000000000000000000000000000000000000000000081526004016121ad90613b44565b60405180910390fd5b60006121c06124be565b905060008151116121e0576040518060200160405280600081525061220b565b806121ea846124d5565b6040516020016121fb9291906137fc565b6040516020818303038152906040525b915050919050565b61221e838383612682565b600073ffffffffffffffffffffffffffffffffffffffff168373ffffffffffffffffffffffffffffffffffffffff1614156122615761225c81612687565b6122a0565b8173ffffffffffffffffffffffffffffffffffffffff168373ffffffffffffffffffffffffffffffffffffffff161461229f5761229e83826126d0565b5b5b600073ffffffffffffffffffffffffffffffffffffffff168273ffffffffffffffffffffffffffffffffffffffff1614156122e3576122de8161283d565b612322565b8273ffffffffffffffffffffffffffffffffffffffff168273ffffffffffffffffffffffffffffffffffffffff1614612321576123208282612980565b5b5b505050565b60006123488473ffffffffffffffffffffffffffffffffffffffff166129ff565b156124b1578373ffffffffffffffffffffffffffffffffffffffff1663150b7a02612371611905565b8786866040518563ffffffff1660e01b8152600401612393949392919061383b565b602060405180830381600087803b1580156123ad57600080fd5b505af19250505080156123de57506040513d601f19601f820116820180604052508101906123db9190612dd3565b60015b612461573d806000811461240e576040519150601f19603f3d011682016040523d82523d6000602084013e612413565b606091505b50600081511415612459576040517f08c379a0000000000000000000000000000000000000000000000000000000008152600401612450906138e4565b60405180910390fd5b805181602001fd5b63150b7a0260e01b7bffffffffffffffffffffffffffffffffffffffffffffffffffffffff1916817bffffffffffffffffffffffffffffffffffffffffffffffffffffffff1916149150506124b6565b600190505b949350505050565b606060405180602001604052806000815250905090565b6060600082141561251d576040518060400160405280600181526020017f3000000000000000000000000000000000000000000000000000000000000000815250905061267d565b600082905060005b6000821461254f57808061253890613e83565b915050600a826125489190613d29565b9150612525565b60008167ffffffffffffffff811115612591577f4e487b7100000000000000000000000000000000000000000000000000000000600052604160045260246000fd5b6040519080825280601f01601f1916602001820160405280156125c35781602001600182028036833780820191505090505b5090505b60008514612676576001826125dc9190613d5a565b9150600a856125eb9190613ecc565b60306125f79190613cd3565b60f81b818381518110612633577f4e487b7100000000000000000000000000000000000000000000000000000000600052603260045260246000fd5b60200101907effffffffffffffffffffffffffffffffffffffffffffffffffffffffffffff1916908160001a905350600a8561266f9190613d29565b94506125c7565b8093505050505b919050565b505050565b6016805490506017600083815260200190815260200160002081905550601681908060018154018082558091505060019003906000526020600020016000909190919091505550565b600060016126dd84610f64565b6126e79190613d5a565b90506000601460008481526020019081526020016000205490508181146127cc576000601360008673ffffffffffffffffffffffffffffffffffffffff1673ffffffffffffffffffffffffffffffffffffffff168152602001908152602001600020600084815260200190815260200160002054905080601360008773ffffffffffffffffffffffffffffffffffffffff1673ffffffffffffffffffffffffffffffffffffffff168152602001908152602001600020600084815260200190815260200160002081905550816014600083815260200190815260200160002081905550505b6014600084815260200190815260200160002060009055601360008573ffffffffffffffffffffffffffffffffffffffff1673ffffffffffffffffffffffffffffffffffffffff16815260200190815260200160002060008381526020019081526020016000206000905550505050565b600060016016805490506128519190613d5a565b90506000601760008481526020019081526020016000205490506000601683815481106128a7577f4e487b7100000000000000000000000000000000000000000000000000000000600052603260045260246000fd5b9060005260206000200154905080601683815481106128ef577f4e487b7100000000000000000000000000000000000000000000000000000000600052603260045260246000fd5b906000526020600020018190555081601760008381526020019081526020016000208190555060176000858152602001908152602001600020600090556016805480612964577f4e487b7100000000000000000000000000000000000000000000000000000000600052603160045260246000fd5b6001900381819060005260206000200160009055905550505050565b600061298b83610f64565b905081601360008573ffffffffffffffffffffffffffffffffffffffff1673ffffffffffffffffffffffffffffffffffffffff168152602001908152602001600020600083815260200190815260200160002081905550806014600084815260200190815260200160002081905550505050565b600080823b905060008111915050919050565b828054612a1e90613e51565b90600052602060002090601f016020900481019282612a405760008555612a87565b82601f10612a5957805160ff1916838001178555612a87565b82800160010185558215612a87579182015b82811115612a86578251825591602001919060010190612a6b565b5b509050612a949190612a98565b5090565b5b80821115612ab1576000816000905550600101612a99565b5090565b6000612ac8612ac384613c30565b613bff565b905082815260208101848484011115612ae057600080fd5b612aeb848285613e0f565b509392505050565b6000612b06612b0184613c60565b613bff565b905082815260208101848484011115612b1e57600080fd5b612b29848285613e0f565b509392505050565b600081359050612b4081613fca565b92915050565b600081359050612b5581613fe1565b92915050565b600081359050612b6a81613ff8565b92915050565b600081519050612b7f81613ff8565b92915050565b600082601f830112612b9657600080fd5b8135612ba6848260208601612ab5565b91505092915050565b600082601f830112612bc057600080fd5b8135612bd0848260208601612af3565b91505092915050565b600081359050612be88161400f565b92915050565b600081359050612bfd81614026565b92915050565b600060208284031215612c1557600080fd5b6000612c2384828501612b31565b91505092915050565b60008060408385031215612c3f57600080fd5b6000612c4d85828601612b31565b9250506020612c5e85828601612b31565b9150509250929050565b600080600060608486031215612c7d57600080fd5b6000612c8b86828701612b31565b9350506020612c9c86828701612b31565b9250506040612cad86828701612bd9565b9150509250925092565b60008060008060808587031215612ccd57600080fd5b6000612cdb87828801612b31565b9450506020612cec87828801612b31565b9350506040612cfd87828801612bd9565b925050606085013567ffffffffffffffff811115612d1a57600080fd5b612d2687828801612b85565b91505092959194509250565b60008060408385031215612d4557600080fd5b6000612d5385828601612b31565b9250506020612d6485828601612b46565b9150509250929050565b60008060408385031215612d8157600080fd5b6000612d8f85828601612b31565b9250506020612da085828601612bd9565b9150509250929050565b600060208284031215612dbc57600080fd5b6000612dca84828501612b5b565b91505092915050565b600060208284031215612de557600080fd5b6000612df384828501612b70565b91505092915050565b600080600060608486031215612e1157600080fd5b600084013567ffffffffffffffff811115612e2b57600080fd5b612e3786828701612baf565b9350506020612e4886828701612b31565b9250506040612e5986828701612bee565b9150509250925092565b600060208284031215612e7557600080fd5b6000612e8384828501612bd9565b91505092915050565b612e9581613d8e565b82525050565b612ea481613da0565b82525050565b6000612eb582613c90565b612ebf8185613ca6565b9350612ecf818560208601613e1e565b612ed881613fb9565b840191505092915050565b6000612eee82613c9b565b612ef88185613cb7565b9350612f08818560208601613e1e565b612f1181613fb9565b840191505092915050565b6000612f2782613c9b565b612f318185613cc8565b9350612f41818560208601613e1e565b80840191505092915050565b6000612f5a602b83613cb7565b91507f455243373231456e756d657261626c653a206f776e657220696e646578206f7560008301527f74206f6620626f756e64730000000000000000000000000000000000000000006020830152604082019050919050565b6000612fc0603283613cb7565b91507f4552433732313a207472616e7366657220746f206e6f6e20455243373231526560008301527f63656976657220696d706c656d656e74657200000000000000000000000000006020830152604082019050919050565b6000613026602683613cb7565b91507f4f776e61626c653a206e6577206f776e657220697320746865207a65726f206160008301527f64647265737300000000000000000000000000000000000000000000000000006020830152604082019050919050565b600061308c601c83613cb7565b91507f4552433732313a20746f6b656e20616c7265616479206d696e746564000000006000830152602082019050919050565b60006130cc601683613cb7565b91507f796f752068617665206d696e7465642035204e465473000000000000000000006000830152602082019050919050565b600061310c602483613cb7565b91507f4552433732313a207472616e7366657220746f20746865207a65726f2061646460008301527f72657373000000000000000000000000000000000000000000000000000000006020830152604082019050919050565b6000613172601983613cb7565b91507f4552433732313a20617070726f766520746f2063616c6c6572000000000000006000830152602082019050919050565b60006131b2602c83613cb7565b91507f4552433732313a206f70657261746f7220717565727920666f72206e6f6e657860008301527f697374656e7420746f6b656e00000000000000000000000000000000000000006020830152604082019050919050565b6000613218601683613cb7565b91507f4e6f7420617574686f72697a656420746f206d696e74000000000000000000006000830152602082019050919050565b6000613258600e83613cb7565b91507f54797065206e6f7420666f756e640000000000000000000000000000000000006000830152602082019050919050565b6000613298601383613cb7565b91507f63616e6e6f742041737369676e206f776e6572000000000000000000000000006000830152602082019050919050565b60006132d8603883613cb7565b91507f4552433732313a20617070726f76652063616c6c6572206973206e6f74206f7760008301527f6e6572206e6f7220617070726f76656420666f7220616c6c00000000000000006020830152604082019050919050565b600061333e602a83613cb7565b91507f4552433732313a2062616c616e636520717565727920666f7220746865207a6560008301527f726f2061646472657373000000000000000000000000000000000000000000006020830152604082019050919050565b60006133a4602983613cb7565b91507f4552433732313a206f776e657220717565727920666f72206e6f6e657869737460008301527f656e7420746f6b656e00000000000000000000000000000000000000000000006020830152604082019050919050565b600061340a602e83613cb7565b91507f45524337323155524953746f726167653a2055524920736574206f66206e6f6e60008301527f6578697374656e7420746f6b656e0000000000000000000000000000000000006020830152604082019050919050565b6000613470602083613cb7565b91507f4552433732313a206d696e7420746f20746865207a65726f20616464726573736000830152602082019050919050565b60006134b0603183613cb7565b91507f45524337323155524953746f726167653a2055524920717565727920666f722060008301527f6e6f6e6578697374656e7420746f6b656e0000000000000000000000000000006020830152604082019050919050565b6000613516602c83613cb7565b91507f4552433732313a20617070726f76656420717565727920666f72206e6f6e657860008301527f697374656e7420746f6b656e00000000000000000000000000000000000000006020830152604082019050919050565b600061357c602083613cb7565b91507f4f776e61626c653a2063616c6c6572206973206e6f7420746865206f776e65726000830152602082019050919050565b60006135bc602983613cb7565b91507f4552433732313a207472616e73666572206f6620746f6b656e2074686174206960008301527f73206e6f74206f776e00000000000000000000000000000000000000000000006020830152604082019050919050565b6000613622602f83613cb7565b91507f4552433732314d657461646174613a2055524920717565727920666f72206e6f60008301527f6e6578697374656e7420746f6b656e00000000000000000000000000000000006020830152604082019050919050565b6000613688601883613cb7565b91507f63616e742061737369676e207a65726f206164647265737300000000000000006000830152602082019050919050565b60006136c8602183613cb7565b91507f4552433732313a20617070726f76616c20746f2063757272656e74206f776e6560008301527f72000000000000000000000000000000000000000000000000000000000000006020830152604082019050919050565b600061372e603183613cb7565b91507f4552433732313a207472616e736665722063616c6c6572206973206e6f74206f60008301527f776e6572206e6f7220617070726f7665640000000000000000000000000000006020830152604082019050919050565b6000613794602c83613cb7565b91507f455243373231456e756d657261626c653a20676c6f62616c20696e646578206f60008301527f7574206f6620626f756e647300000000000000000000000000000000000000006020830152604082019050919050565b6137f681613df8565b82525050565b60006138088285612f1c565b91506138148284612f1c565b91508190509392505050565b60006020820190506138356000830184612e8c565b92915050565b60006080820190506138506000830187612e8c565b61385d6020830186612e8c565b61386a60408301856137ed565b818103606083015261387c8184612eaa565b905095945050505050565b600060208201905061389c6000830184612e9b565b92915050565b600060208201905081810360008301526138bc8184612ee3565b905092915050565b600060208201905081810360008301526138dd81612f4d565b9050919050565b600060208201905081810360008301526138fd81612fb3565b9050919050565b6000602082019050818103600083015261391d81613019565b9050919050565b6000602082019050818103600083015261393d8161307f565b9050919050565b6000602082019050818103600083015261395d816130bf565b9050919050565b6000602082019050818103600083015261397d816130ff565b9050919050565b6000602082019050818103600083015261399d81613165565b9050919050565b600060208201905081810360008301526139bd816131a5565b9050919050565b600060208201905081810360008301526139dd8161320b565b9050919050565b600060208201905081810360008301526139fd8161324b565b9050919050565b60006020820190508181036000830152613a1d8161328b565b9050919050565b60006020820190508181036000830152613a3d816132cb565b9050919050565b60006020820190508181036000830152613a5d81613331565b9050919050565b60006020820190508181036000830152613a7d81613397565b9050919050565b60006020820190508181036000830152613a9d816133fd565b9050919050565b60006020820190508181036000830152613abd81613463565b9050919050565b60006020820190508181036000830152613add816134a3565b9050919050565b60006020820190508181036000830152613afd81613509565b9050919050565b60006020820190508181036000830152613b1d8161356f565b9050919050565b60006020820190508181036000830152613b3d816135af565b9050919050565b60006020820190508181036000830152613b5d81613615565b9050919050565b60006020820190508181036000830152613b7d8161367b565b9050919050565b60006020820190508181036000830152613b9d816136bb565b9050919050565b60006020820190508181036000830152613bbd81613721565b9050919050565b60006020820190508181036000830152613bdd81613787565b9050919050565b6000602082019050613bf960008301846137ed565b92915050565b6000604051905081810181811067ffffffffffffffff82111715613c2657613c25613f8a565b5b8060405250919050565b600067ffffffffffffffff821115613c4b57613c4a613f8a565b5b601f19601f8301169050602081019050919050565b600067ffffffffffffffff821115613c7b57613c7a613f8a565b5b601f19601f8301169050602081019050919050565b600081519050919050565b600081519050919050565b600082825260208201905092915050565b600082825260208201905092915050565b600081905092915050565b6000613cde82613df8565b9150613ce983613df8565b9250827fffffffffffffffffffffffffffffffffffffffffffffffffffffffffffffffff03821115613d1e57613d1d613efd565b5b828201905092915050565b6000613d3482613df8565b9150613d3f83613df8565b925082613d4f57613d4e613f2c565b5b828204905092915050565b6000613d6582613df8565b9150613d7083613df8565b925082821015613d8357613d82613efd565b5b828203905092915050565b6000613d9982613dd8565b9050919050565b60008115159050919050565b60007fffffffff0000000000000000000000000000000000000000000000000000000082169050919050565b600073ffffffffffffffffffffffffffffffffffffffff82169050919050565b6000819050919050565b600060ff82169050919050565b82818337600083830152505050565b60005b83811015613e3c578082015181840152602081019050613e21565b83811115613e4b576000848401525b50505050565b60006002820490506001821680613e6957607f821691505b60208210811415613e7d57613e7c613f5b565b5b50919050565b6000613e8e82613df8565b91507fffffffffffffffffffffffffffffffffffffffffffffffffffffffffffffffff821415613ec157613ec0613efd565b5b600182019050919050565b6000613ed782613df8565b9150613ee283613df8565b925082613ef257613ef1613f2c565b5b828206905092915050565b7f4e487b7100000000000000000000000000000000000000000000000000000000600052601160045260246000fd5b7f4e487b7100000000000000000000000000000000000000000000000000000000600052601260045260246000fd5b7f4e487b7100000000000000000000000000000000000000000000000000000000600052602260045260246000fd5b7f4e487b7100000000000000000000000000000000000000000000000000000000600052604160045260246000fd5b6000601f19601f8301169050919050565b613fd381613d8e565b8114613fde57600080fd5b50565b613fea81613da0565b8114613ff557600080fd5b50565b61400181613dac565b811461400c57600080fd5b50565b61401881613df8565b811461402357600080fd5b50565b61402f81613e02565b811461403a57600080fd5b5056fea264697066735822122068a95bc7f2271b5183d0fe782b5b5da0f55bb865c308de2d8006c596cd72189464736f6c63430008000033",
  "linkReferences": {},
  "deployedLinkReferences": {}
}